{
  "contractName": "AgonTokenCrowdSale",
  "abi": [
    {
      "constant": true,
      "inputs": [],
      "name": "phase0StartTime",
      "outputs": [
        {
          "name": "",
          "type": "uint256"
        }
      ],
      "payable": false,
      "stateMutability": "view",
      "type": "function"
    },
    {
      "constant": true,
      "inputs": [],
      "name": "INITIAL_AGON_TOKEN_SUPPLY",
      "outputs": [
        {
          "name": "",
          "type": "uint256"
        }
      ],
      "payable": false,
      "stateMutability": "view",
      "type": "function"
    },
    {
      "constant": true,
      "inputs": [],
      "name": "hasClosed",
      "outputs": [
        {
          "name": "",
          "type": "bool"
        }
      ],
      "payable": false,
      "stateMutability": "view",
      "type": "function"
    },
    {
      "constant": true,
      "inputs": [],
      "name": "RATE_ETH_AGN_PHASE_1_BONUS",
      "outputs": [
        {
          "name": "",
          "type": "uint256"
        }
      ],
      "payable": false,
      "stateMutability": "view",
      "type": "function"
    },
    {
      "constant": true,
      "inputs": [],
      "name": "RATE_ETH_AGN_PHASE_0_BONUS",
      "outputs": [
        {
          "name": "",
          "type": "uint256"
        }
      ],
      "payable": false,
      "stateMutability": "view",
      "type": "function"
    },
    {
      "constant": true,
      "inputs": [],
      "name": "rate",
      "outputs": [
        {
          "name": "",
          "type": "uint256"
        }
      ],
      "payable": false,
      "stateMutability": "view",
      "type": "function"
    },
    {
      "constant": true,
      "inputs": [],
      "name": "DECIMALS",
      "outputs": [
        {
          "name": "",
          "type": "uint256"
        }
      ],
      "payable": false,
      "stateMutability": "view",
      "type": "function"
    },
    {
      "constant": true,
      "inputs": [],
      "name": "endTime",
      "outputs": [
        {
          "name": "",
          "type": "uint256"
        }
      ],
      "payable": false,
      "stateMutability": "view",
      "type": "function"
    },
    {
      "constant": true,
      "inputs": [],
      "name": "RATE_ETH_AGN_PHASE_3_BONUS",
      "outputs": [
        {
          "name": "",
          "type": "uint256"
        }
      ],
      "payable": false,
      "stateMutability": "view",
      "type": "function"
    },
    {
      "constant": true,
      "inputs": [],
      "name": "cap",
      "outputs": [
        {
          "name": "",
          "type": "uint256"
        }
      ],
      "payable": false,
      "stateMutability": "view",
      "type": "function"
    },
    {
      "constant": true,
      "inputs": [],
      "name": "AGON_BOUNTY_AMOUNT",
      "outputs": [
        {
          "name": "",
          "type": "uint256"
        }
      ],
      "payable": false,
      "stateMutability": "view",
      "type": "function"
    },
    {
      "constant": true,
      "inputs": [],
      "name": "phase3StartTime",
      "outputs": [
        {
          "name": "",
          "type": "uint256"
        }
      ],
      "payable": false,
      "stateMutability": "view",
      "type": "function"
    },
    {
      "constant": true,
      "inputs": [],
      "name": "goal",
      "outputs": [
        {
          "name": "",
          "type": "uint256"
        }
      ],
      "payable": false,
      "stateMutability": "view",
      "type": "function"
    },
    {
      "constant": true,
      "inputs": [],
      "name": "weiRaised",
      "outputs": [
        {
          "name": "",
          "type": "uint256"
        }
      ],
      "payable": false,
      "stateMutability": "view",
      "type": "function"
    },
    {
      "constant": true,
      "inputs": [
        {
          "name": "",
          "type": "address"
        }
      ],
      "name": "contributions",
      "outputs": [
        {
          "name": "",
          "type": "uint256"
        }
      ],
      "payable": false,
      "stateMutability": "view",
      "type": "function"
    },
    {
      "constant": false,
      "inputs": [],
      "name": "finalize",
      "outputs": [],
      "payable": false,
      "stateMutability": "nonpayable",
      "type": "function"
    },
    {
      "constant": true,
      "inputs": [],
      "name": "capReached",
      "outputs": [
        {
          "name": "",
          "type": "bool"
        }
      ],
      "payable": false,
      "stateMutability": "view",
      "type": "function"
    },
    {
      "constant": true,
      "inputs": [],
      "name": "wallet",
      "outputs": [
        {
          "name": "",
          "type": "address"
        }
      ],
      "payable": false,
      "stateMutability": "view",
      "type": "function"
    },
    {
      "constant": true,
      "inputs": [],
      "name": "phase1StartTime",
      "outputs": [
        {
          "name": "",
          "type": "uint256"
        }
      ],
      "payable": false,
      "stateMutability": "view",
      "type": "function"
    },
    {
      "constant": true,
      "inputs": [],
      "name": "AGON_AIRDROP_WALLET",
      "outputs": [
        {
          "name": "",
          "type": "address"
        }
      ],
      "payable": false,
      "stateMutability": "view",
      "type": "function"
    },
    {
      "constant": true,
      "inputs": [],
      "name": "AGON_BENEFICIARY_WALLET",
      "outputs": [
        {
          "name": "",
          "type": "address"
        }
      ],
      "payable": false,
      "stateMutability": "view",
      "type": "function"
    },
    {
      "constant": true,
      "inputs": [],
      "name": "RATE_ETH_AGN_PHASE_2_BONUS",
      "outputs": [
        {
          "name": "",
          "type": "uint256"
        }
      ],
      "payable": false,
      "stateMutability": "view",
      "type": "function"
    },
    {
      "constant": true,
      "inputs": [],
      "name": "AGON_EARLY_INVESTOR_WALLET",
      "outputs": [
        {
          "name": "",
          "type": "address"
        }
      ],
      "payable": false,
      "stateMutability": "view",
      "type": "function"
    },
    {
      "constant": true,
      "inputs": [],
      "name": "startTime",
      "outputs": [
        {
          "name": "",
          "type": "uint256"
        }
      ],
      "payable": false,
      "stateMutability": "view",
      "type": "function"
    },
    {
      "constant": true,
      "inputs": [],
      "name": "goalReached",
      "outputs": [
        {
          "name": "",
          "type": "bool"
        }
      ],
      "payable": false,
      "stateMutability": "view",
      "type": "function"
    },
    {
      "constant": true,
      "inputs": [],
      "name": "AGON_AIRDROP_AMOUNT",
      "outputs": [
        {
          "name": "",
          "type": "uint256"
        }
      ],
      "payable": false,
      "stateMutability": "view",
      "type": "function"
    },
    {
      "constant": true,
      "inputs": [],
      "name": "individuallyFixedCap",
      "outputs": [
        {
          "name": "",
          "type": "uint256"
        }
      ],
      "payable": false,
      "stateMutability": "view",
      "type": "function"
    },
    {
      "constant": true,
      "inputs": [],
      "name": "isFinalized",
      "outputs": [
        {
          "name": "",
          "type": "bool"
        }
      ],
      "payable": false,
      "stateMutability": "view",
      "type": "function"
    },
    {
      "constant": true,
      "inputs": [],
      "name": "owner",
      "outputs": [
        {
          "name": "",
          "type": "address"
        }
      ],
      "payable": false,
      "stateMutability": "view",
      "type": "function"
    },
    {
      "constant": true,
      "inputs": [],
      "name": "AGON_BOUNTY_WALLET",
      "outputs": [
        {
          "name": "",
          "type": "address"
        }
      ],
      "payable": false,
      "stateMutability": "view",
      "type": "function"
    },
    {
      "constant": false,
      "inputs": [],
      "name": "claimRefund",
      "outputs": [],
      "payable": false,
      "stateMutability": "nonpayable",
      "type": "function"
    },
    {
      "constant": true,
      "inputs": [
        {
          "name": "_beneficiary",
          "type": "address"
        }
      ],
      "name": "getUserContribution",
      "outputs": [
        {
          "name": "",
          "type": "uint256"
        }
      ],
      "payable": false,
      "stateMutability": "view",
      "type": "function"
    },
    {
      "constant": true,
      "inputs": [],
      "name": "AGON_TEAM_VESTING_WALLET",
      "outputs": [
        {
          "name": "",
          "type": "address"
        }
      ],
      "payable": false,
      "stateMutability": "view",
      "type": "function"
    },
    {
      "constant": true,
      "inputs": [],
      "name": "AGON_TEAM_VESTING_AMOUNT",
      "outputs": [
        {
          "name": "",
          "type": "uint256"
        }
      ],
      "payable": false,
      "stateMutability": "view",
      "type": "function"
    },
    {
      "constant": false,
      "inputs": [
        {
          "name": "_beneficiary",
          "type": "address"
        }
      ],
      "name": "buyTokens",
      "outputs": [],
      "payable": true,
      "stateMutability": "payable",
      "type": "function"
    },
    {
      "constant": true,
      "inputs": [],
      "name": "hasEnded",
      "outputs": [
        {
          "name": "",
          "type": "bool"
        }
      ],
      "payable": false,
      "stateMutability": "view",
      "type": "function"
    },
    {
      "constant": true,
      "inputs": [],
      "name": "phase2StartTime",
      "outputs": [
        {
          "name": "",
          "type": "uint256"
        }
      ],
      "payable": false,
      "stateMutability": "view",
      "type": "function"
    },
    {
      "constant": true,
      "inputs": [],
      "name": "AGON_INDIVIDUAL_CAP",
      "outputs": [
        {
          "name": "",
          "type": "uint256"
        }
      ],
      "payable": false,
      "stateMutability": "view",
      "type": "function"
    },
    {
      "constant": false,
      "inputs": [
        {
          "name": "newOwner",
          "type": "address"
        }
      ],
      "name": "transferOwnership",
      "outputs": [],
      "payable": false,
      "stateMutability": "nonpayable",
      "type": "function"
    },
    {
      "constant": true,
      "inputs": [],
      "name": "vault",
      "outputs": [
        {
          "name": "",
          "type": "address"
        }
      ],
      "payable": false,
      "stateMutability": "view",
      "type": "function"
    },
    {
      "constant": true,
      "inputs": [],
      "name": "token",
      "outputs": [
        {
          "name": "",
          "type": "address"
        }
      ],
      "payable": false,
      "stateMutability": "view",
      "type": "function"
    },
    {
      "constant": true,
      "inputs": [],
      "name": "AGON_EARLY_INVESTOR_AMOUNT",
      "outputs": [
        {
          "name": "",
          "type": "uint256"
        }
      ],
      "payable": false,
      "stateMutability": "view",
      "type": "function"
    },
    {
      "inputs": [
        {
          "name": "_startTime",
          "type": "uint256"
        },
        {
          "name": "_endTime",
          "type": "uint256"
        }
      ],
      "payable": false,
      "stateMutability": "nonpayable",
      "type": "constructor"
    },
    {
      "payable": true,
      "stateMutability": "payable",
      "type": "fallback"
    },
    {
      "anonymous": false,
      "inputs": [
        {
          "indexed": true,
          "name": "purchaser",
          "type": "address"
        },
        {
          "indexed": true,
          "name": "beneficiary",
          "type": "address"
        },
        {
          "indexed": false,
          "name": "value",
          "type": "uint256"
        },
        {
          "indexed": false,
          "name": "amount",
          "type": "uint256"
        }
      ],
      "name": "TokenPurchase",
      "type": "event"
    },
    {
      "anonymous": false,
      "inputs": [],
      "name": "Finalized",
      "type": "event"
    },
    {
      "anonymous": false,
      "inputs": [
        {
          "indexed": true,
          "name": "previousOwner",
          "type": "address"
        },
        {
          "indexed": true,
          "name": "newOwner",
          "type": "address"
        }
      ],
      "name": "OwnershipTransferred",
      "type": "event"
    },
    {
      "constant": true,
      "inputs": [],
      "name": "GetCurrentBonusRate",
      "outputs": [
        {
          "name": "bonusRate",
          "type": "uint256"
        }
      ],
      "payable": false,
      "stateMutability": "view",
      "type": "function"
    },
    {
      "constant": false,
      "inputs": [],
      "name": "burnRemainingTokens",
      "outputs": [],
      "payable": false,
      "stateMutability": "nonpayable",
      "type": "function"
    }
  ],
  "bytecode": "0x60606040526000600760006101000a81548160ff02191690831515021790555034156200002b57600080fd5b604051604080620079828339810160405280805190602001909190805190602001909190505069017b7883c069166000006a04f68ca6d8cd91c6000000683635c9adc5dea000008484614e20610123336000806101000a81548173ffffffffffffffffffffffffffffffffffffffff021916908373ffffffffffffffffffffffffffffffffffffffff160217905550428410151515620000ca57600080fd5b838310151515620000da57600080fd5b600082111515620000ea57600080fd5b600073ffffffffffffffffffffffffffffffffffffffff168173ffffffffffffffffffffffffffffffffffffffff16141515156200012757600080fd5b83600581905550826006819055508160038190555080600260006101000a81548173ffffffffffffffffffffffffffffffffffffffff021916908373ffffffffffffffffffffffffffffffffffffffff1602179055506200019b620005ec6401000000000262001c7e176401000000009004565b600160006101000a81548173ffffffffffffffffffffffffffffffffffffffff021916908373ffffffffffffffffffffffffffffffffffffffff16021790555050505050600081111515620001ef57600080fd5b600260009054906101000a900473ffffffffffffffffffffffffffffffffffffffff166200021c62000673565b808273ffffffffffffffffffffffffffffffffffffffff1673ffffffffffffffffffffffffffffffffffffffff168152602001915050604051809103906000f08015156200026957600080fd5b600960006101000a81548173ffffffffffffffffffffffffffffffffffffffff021916908373ffffffffffffffffffffffffffffffffffffffff1602179055508060088190555050600081111515620002c157600080fd5b80600b8190555050600081111515620002d957600080fd5b80600c819055505081600d8190555062015180600d5401600e819055506203f480600e5401600f81905550628a6d80600f5401601081905550601054811115156200032357600080fd5b600160009054906101000a900473ffffffffffffffffffffffffffffffffffffffff1673ffffffffffffffffffffffffffffffffffffffff1663a9059cbb6104566a13da329b633647180000006040518363ffffffff167c0100000000000000000000000000000000000000000000000000000000028152600401808373ffffffffffffffffffffffffffffffffffffffff1673ffffffffffffffffffffffffffffffffffffffff16815260200182815260200192505050602060405180830381600087803b1515620003f557600080fd5b5af115156200040357600080fd5b5050506040518051905050600160009054906101000a900473ffffffffffffffffffffffffffffffffffffffff1673ffffffffffffffffffffffffffffffffffffffff1663a9059cbb6107896a09ed194db19b238c0000006040518363ffffffff167c0100000000000000000000000000000000000000000000000000000000028152600401808373ffffffffffffffffffffffffffffffffffffffff1673ffffffffffffffffffffffffffffffffffffffff16815260200182815260200192505050602060405180830381600087803b1515620004e057600080fd5b5af11515620004ee57600080fd5b5050506040518051905050600160009054906101000a900473ffffffffffffffffffffffffffffffffffffffff1673ffffffffffffffffffffffffffffffffffffffff1663a9059cbb6107896a07f0e10af47c1c700000006040518363ffffffff167c0100000000000000000000000000000000000000000000000000000000028152600401808373ffffffffffffffffffffffffffffffffffffffff1673ffffffffffffffffffffffffffffffffffffffff16815260200182815260200192505050602060405180830381600087803b1515620005cb57600080fd5b5af11515620005d957600080fd5b5050506040518051905050505062000695565b60006012600a0a630e4e1c00026005546006546101236200060c62000684565b808581526020018481526020018381526020018273ffffffffffffffffffffffffffffffffffffffff1673ffffffffffffffffffffffffffffffffffffffff168152602001945050505050604051809103906000f08015156200066e57600080fd5b905090565b604051610a77806200497983390190565b60405161259280620053f083390190565b6142d480620006a56000396000f30060606040526004361062000247576000357c0100000000000000000000000000000000000000000000000000000000900463ffffffff1680630e9c2a5314620002545780630f13839614620002805780631515bc2b14620002ac578063261f177014620002dc57806327f4c90c14620003085780632c4e722e14620003345780632e0f262514620003605780633197cbb6146200038c5780633322bf2814620003b8578063355274ea14620003e45780633577070814620004105780633dce7718146200043c5780634019388314620004685780634042b66f146200049457806342e94c9014620004c05780634bb278f314620005105780634f9359451462000528578063521eb273146200055857806354f42b6614620005b057806363cc811414620005dc5780636a0dd12314620006345780637434ad94146200068c578063747b8b9914620006b8578063788022d714620006e457806378e97925146200073c5780637d3d6522146200076857806383408d731462000798578063848866df14620007b0578063859878ae14620007dc5780638d4e408314620008085780638da5cb5b14620008385780638e5383f41462000890578063b5545a3c14620008e8578063bb8b2b471462000900578063bdb30b631462000950578063e9f7adb114620009a8578063ec8ac4d814620009d4578063ecb70fb71462000a04578063ed6bd8071462000a34578063ee2e53591462000a60578063f2fde38b1462000a8c578063fbfa77cf1462000ac8578063fc0c546a1462000b20578063fe2b8dc51462000b78575b620002523362000ba4565b005b34156200026057600080fd5b6200026a62000ca9565b6040518082815260200191505060405180910390f35b34156200028c57600080fd5b6200029662000caf565b6040518082815260200191505060405180910390f35b3415620002b857600080fd5b620002c262000cbd565b604051808215151515815260200191505060405180910390f35b3415620002e857600080fd5b620002f262000cc9565b6040518082815260200191505060405180910390f35b34156200031457600080fd5b6200031e62000ccf565b6040518082815260200191505060405180910390f35b34156200034057600080fd5b6200034a62000cd5565b6040518082815260200191505060405180910390f35b34156200036c57600080fd5b6200037662000cdb565b6040518082815260200191505060405180910390f35b34156200039857600080fd5b620003a262000ce0565b6040518082815260200191505060405180910390f35b3415620003c457600080fd5b620003ce62000ce6565b6040518082815260200191505060405180910390f35b3415620003f057600080fd5b620003fa62000ceb565b6040518082815260200191505060405180910390f35b34156200041c57600080fd5b6200042662000cf1565b6040518082815260200191505060405180910390f35b34156200044857600080fd5b6200045262000d00565b6040518082815260200191505060405180910390f35b34156200047457600080fd5b6200047e62000d06565b6040518082815260200191505060405180910390f35b3415620004a057600080fd5b620004aa62000d0c565b6040518082815260200191505060405180910390f35b3415620004cc57600080fd5b620004fa600480803573ffffffffffffffffffffffffffffffffffffffff1690602001909190505062000d12565b6040518082815260200191505060405180910390f35b34156200051c57600080fd5b6200052662000d2a565b005b34156200053457600080fd5b6200053e62000e0c565b604051808215151515815260200191505060405180910390f35b34156200056457600080fd5b6200056e62000e1b565b604051808273ffffffffffffffffffffffffffffffffffffffff1673ffffffffffffffffffffffffffffffffffffffff16815260200191505060405180910390f35b3415620005bc57600080fd5b620005c662000e41565b6040518082815260200191505060405180910390f35b3415620005e857600080fd5b620005f262000e47565b604051808273ffffffffffffffffffffffffffffffffffffffff1673ffffffffffffffffffffffffffffffffffffffff16815260200191505060405180910390f35b34156200064057600080fd5b6200064a62000e4d565b604051808273ffffffffffffffffffffffffffffffffffffffff1673ffffffffffffffffffffffffffffffffffffffff16815260200191505060405180910390f35b34156200069857600080fd5b620006a262000e53565b6040518082815260200191505060405180910390f35b3415620006c457600080fd5b620006ce62000e59565b6040518082815260200191505060405180910390f35b3415620006f057600080fd5b620006fa62000ef3565b604051808273ffffffffffffffffffffffffffffffffffffffff1673ffffffffffffffffffffffffffffffffffffffff16815260200191505060405180910390f35b34156200074857600080fd5b6200075262000ef9565b6040518082815260200191505060405180910390f35b34156200077457600080fd5b6200077e62000eff565b604051808215151515815260200191505060405180910390f35b3415620007a457600080fd5b620007ae62000f0e565b005b3415620007bc57600080fd5b620007c66200130d565b6040518082815260200191505060405180910390f35b3415620007e857600080fd5b620007f26200131c565b6040518082815260200191505060405180910390f35b34156200081457600080fd5b6200081e62001322565b604051808215151515815260200191505060405180910390f35b34156200084457600080fd5b6200084e62001335565b604051808273ffffffffffffffffffffffffffffffffffffffff1673ffffffffffffffffffffffffffffffffffffffff16815260200191505060405180910390f35b34156200089c57600080fd5b620008a66200135a565b604051808273ffffffffffffffffffffffffffffffffffffffff1673ffffffffffffffffffffffffffffffffffffffff16815260200191505060405180910390f35b3415620008f457600080fd5b620008fe62001360565b005b34156200090c57600080fd5b6200093a600480803573ffffffffffffffffffffffffffffffffffffffff1690602001909190505062001463565b6040518082815260200191505060405180910390f35b34156200095c57600080fd5b62000966620014ac565b604051808273ffffffffffffffffffffffffffffffffffffffff1673ffffffffffffffffffffffffffffffffffffffff16815260200191505060405180910390f35b3415620009b457600080fd5b620009be620014b2565b6040518082815260200191505060405180910390f35b62000a02600480803573ffffffffffffffffffffffffffffffffffffffff1690602001909190505062000ba4565b005b341562000a1057600080fd5b62000a1a620014c1565b604051808215151515815260200191505060405180910390f35b341562000a4057600080fd5b62000a4a620014cd565b6040518082815260200191505060405180910390f35b341562000a6c57600080fd5b62000a76620014d3565b6040518082815260200191505060405180910390f35b341562000a9857600080fd5b62000ac6600480803573ffffffffffffffffffffffffffffffffffffffff16906020019091905050620014e2565b005b341562000ad457600080fd5b62000ade62001639565b604051808273ffffffffffffffffffffffffffffffffffffffff1673ffffffffffffffffffffffffffffffffffffffff16815260200191505060405180910390f35b341562000b2c57600080fd5b62000b366200165f565b604051808273ffffffffffffffffffffffffffffffffffffffff1673ffffffffffffffffffffffffffffffffffffffff16815260200191505060405180910390f35b341562000b8457600080fd5b62000b8e62001685565b6040518082815260200191505060405180910390f35b60008060008034935062000bb9858562001694565b62000bc484620016cc565b925062000bd184620016ec565b915062000be882846200171e90919063ffffffff16565b905062000c01846004546200171e90919063ffffffff16565b60048190555062000c1385826200173d565b8473ffffffffffffffffffffffffffffffffffffffff163373ffffffffffffffffffffffffffffffffffffffff167f623b3804fa71d67900d064613da8f94b9617215ee90799290593e1745087ad188684604051808381526020018281526020019250505060405180910390a362000c8c85856200174d565b62000c96620017f4565b62000ca28585620018c5565b5050505050565b600d5481565b6012600a0a630e4e1c000281565b60006006544211905090565b61138881565b611f4081565b60035481565b601281565b60065481565b600081565b600c5481565b6a09ed194db19b238c00000081565b60105481565b60085481565b60045481565b600a6020528060005260406000206000915090505481565b6000809054906101000a900473ffffffffffffffffffffffffffffffffffffffff1673ffffffffffffffffffffffffffffffffffffffff163373ffffffffffffffffffffffffffffffffffffffff1614151562000d8657600080fd5b600760009054906101000a900460ff1615151562000da357600080fd5b62000dad62000cbd565b151562000db957600080fd5b62000dc3620018c9565b7f6823b073d48d6e3a7d385eeb601452d680e74bb46afe3255a7d778f3a9b1768160405160405180910390a16001600760006101000a81548160ff021916908315150217905550565b6000600c546004541015905090565b600260009054906101000a900473ffffffffffffffffffffffffffffffffffffffff1681565b600e5481565b61078981565b61012381565b610bb881565b6000600d54421015801562000e705750600e544211155b1562000e8157611f40905062000ef0565b600e54421015801562000e965750600f544211155b1562000ea757611388905062000eef565b600f54421015801562000ebc57506010544211155b1562000ecd57610bb8905062000eee565b601054421015801562000ee257506006544211155b1562000eed57600090505b5b5b5b90565b61045681565b60055481565b60006008546004541015905090565b6000806000806000809054906101000a900473ffffffffffffffffffffffffffffffffffffffff1673ffffffffffffffffffffffffffffffffffffffff163373ffffffffffffffffffffffffffffffffffffffff1614151562000f7057600080fd5b62000f7a620014c1565b151562000f8657600080fd5b600160009054906101000a900473ffffffffffffffffffffffffffffffffffffffff1673ffffffffffffffffffffffffffffffffffffffff166370a08231306040518263ffffffff167c0100000000000000000000000000000000000000000000000000000000028152600401808273ffffffffffffffffffffffffffffffffffffffff1673ffffffffffffffffffffffffffffffffffffffff168152602001915050602060405180830381600087803b15156200104357600080fd5b5af115156200105157600080fd5b505050604051805190509350600160009054906101000a900473ffffffffffffffffffffffffffffffffffffffff1673ffffffffffffffffffffffffffffffffffffffff166342966c68856040518263ffffffff167c010000000000000000000000000000000000000000000000000000000002815260040180828152602001915050600060405180830381600087803b1515620010ee57600080fd5b5af11515620010fc57600080fd5b5050506200111e846012600a0a630e4e1c000262001a1a90919063ffffffff16565b92506200114c6103e86200113d60af8662001a3490919063ffffffff16565b62001a7390919063ffffffff16565b9150816a22bdd88fed9efc6a0000001115620013075762001182826a22bdd88fed9efc6a00000062001a1a90919063ffffffff16565b9050600160009054906101000a900473ffffffffffffffffffffffffffffffffffffffff1673ffffffffffffffffffffffffffffffffffffffff166342966c68826040518263ffffffff167c010000000000000000000000000000000000000000000000000000000002815260040180828152602001915050600060405180830381600087803b15156200121557600080fd5b5af115156200122357600080fd5b505050600160009054906101000a900473ffffffffffffffffffffffffffffffffffffffff1673ffffffffffffffffffffffffffffffffffffffff1663a9059cbb610123846040518363ffffffff167c0100000000000000000000000000000000000000000000000000000000028152600401808373ffffffffffffffffffffffffffffffffffffffff1673ffffffffffffffffffffffffffffffffffffffff16815260200182815260200192505050602060405180830381600087803b1515620012ed57600080fd5b5af11515620012fb57600080fd5b50505060405180519050505b50505050565b6a07f0e10af47c1c7000000081565b600b5481565b600760009054906101000a900460ff1681565b6000809054906101000a900473ffffffffffffffffffffffffffffffffffffffff1681565b61078981565b600760009054906101000a900460ff1615156200137c57600080fd5b6200138662000eff565b1515156200139357600080fd5b600960009054906101000a900473ffffffffffffffffffffffffffffffffffffffff1673ffffffffffffffffffffffffffffffffffffffff1663fa89401a336040518263ffffffff167c0100000000000000000000000000000000000000000000000000000000028152600401808273ffffffffffffffffffffffffffffffffffffffff1673ffffffffffffffffffffffffffffffffffffffff168152602001915050600060405180830381600087803b15156200145057600080fd5b5af115156200145e57600080fd5b505050565b6000600a60008373ffffffffffffffffffffffffffffffffffffffff1673ffffffffffffffffffffffffffffffffffffffff168152602001908152602001600020549050919050565b61012381565b6a22bdd88fed9efc6a00000081565b60006006544211905090565b600f5481565b6a04f68ca6d8cd91c600000081565b6000809054906101000a900473ffffffffffffffffffffffffffffffffffffffff1673ffffffffffffffffffffffffffffffffffffffff163373ffffffffffffffffffffffffffffffffffffffff161415156200153e57600080fd5b600073ffffffffffffffffffffffffffffffffffffffff168173ffffffffffffffffffffffffffffffffffffffff16141515156200157b57600080fd5b8073ffffffffffffffffffffffffffffffffffffffff166000809054906101000a900473ffffffffffffffffffffffffffffffffffffffff1673ffffffffffffffffffffffffffffffffffffffff167f8be0079c531659141344cd1fd0a4f28419497f9722a3daafe3b4186f6b6457e060405160405180910390a3806000806101000a81548173ffffffffffffffffffffffffffffffffffffffff021916908373ffffffffffffffffffffffffffffffffffffffff16021790555050565b600960009054906101000a900473ffffffffffffffffffffffffffffffffffffffff1681565b600160009054906101000a900473ffffffffffffffffffffffffffffffffffffffff1681565b6a13da329b6336471800000081565b620016a0828262001a8a565b600c54620016ba826004546200171e90919063ffffffff16565b11151515620016c857600080fd5b5050565b6000620016e56003548362001a3490919063ffffffff16565b9050919050565b6000806000620016fb62000e59565b915062001712828562001a3490919063ffffffff16565b90508092505050919050565b60008082840190508381101515156200173357fe5b8091505092915050565b62001749828262001aff565b5050565b62001759828262001be1565b620017ad81600a60008573ffffffffffffffffffffffffffffffffffffffff1673ffffffffffffffffffffffffffffffffffffffff168152602001908152602001600020546200171e90919063ffffffff16565b600a60008473ffffffffffffffffffffffffffffffffffffffff1673ffffffffffffffffffffffffffffffffffffffff168152602001908152602001600020819055505050565b600960009054906101000a900473ffffffffffffffffffffffffffffffffffffffff1673ffffffffffffffffffffffffffffffffffffffff1663f340fa0134336040518363ffffffff167c0100000000000000000000000000000000000000000000000000000000028152600401808273ffffffffffffffffffffffffffffffffffffffff1673ffffffffffffffffffffffffffffffffffffffff1681526020019150506000604051808303818588803b1515620018b157600080fd5b5af11515620018bf57600080fd5b50505050565b5050565b620018d362000eff565b156200197657600960009054906101000a900473ffffffffffffffffffffffffffffffffffffffff1673ffffffffffffffffffffffffffffffffffffffff166343d726d66040518163ffffffff167c0100000000000000000000000000000000000000000000000000000000028152600401600060405180830381600087803b15156200195f57600080fd5b5af115156200196d57600080fd5b50505062001a0e565b600960009054906101000a900473ffffffffffffffffffffffffffffffffffffffff1673ffffffffffffffffffffffffffffffffffffffff16638c52dc416040518163ffffffff167c0100000000000000000000000000000000000000000000000000000000028152600401600060405180830381600087803b1515620019fc57600080fd5b5af1151562001a0a57600080fd5b5050505b62001a1862001be5565b565b600082821115151562001a2957fe5b818303905092915050565b600080600084141562001a4b576000915062001a6c565b828402905082848281151562001a5d57fe5b0414151562001a6857fe5b8091505b5092915050565b6000818381151562001a8157fe5b04905092915050565b62001a96828262001be7565b600b5462001aed82600a60008673ffffffffffffffffffffffffffffffffffffffff1673ffffffffffffffffffffffffffffffffffffffff168152602001908152602001600020546200171e90919063ffffffff16565b1115151562001afb57600080fd5b5050565b600160009054906101000a900473ffffffffffffffffffffffffffffffffffffffff1673ffffffffffffffffffffffffffffffffffffffff1663a9059cbb83836040518363ffffffff167c0100000000000000000000000000000000000000000000000000000000028152600401808373ffffffffffffffffffffffffffffffffffffffff1673ffffffffffffffffffffffffffffffffffffffff16815260200182815260200192505050602060405180830381600087803b151562001bc457600080fd5b5af1151562001bd257600080fd5b50505060405180519050505050565b5050565b565b600554421015801562001bfc57506006544211155b151562001c0857600080fd5b600073ffffffffffffffffffffffffffffffffffffffff168273ffffffffffffffffffffffffffffffffffffffff161415151562001c4557600080fd5b6000811415151562001c5657600080fd5b600554421015151562001c6857600080fd5b600654421115151562001c7a57600080fd5b5050565b60006012600a0a630e4e1c000260055460065461012362001c9e62001d05565b808581526020018481526020018381526020018273ffffffffffffffffffffffffffffffffffffffff1673ffffffffffffffffffffffffffffffffffffffff168152602001945050505050604051809103906000f080151562001d0057600080fd5b905090565b6040516125928062001d1783390190560060606040526000600360146101000a81548160ff02191690831515021790555034156200002b57600080fd5b604051608080620025928339810160405280805190602001909190805190602001909190805190602001909190805190602001909190505033600360006101000a81548173ffffffffffffffffffffffffffffffffffffffff021916908373ffffffffffffffffffffffffffffffffffffffff160217905550624f1a00420160068190555083600181905550836000803373ffffffffffffffffffffffffffffffffffffffff1673ffffffffffffffffffffffffffffffffffffffff168152602001908152602001600020819055503373ffffffffffffffffffffffffffffffffffffffff1660007fddf252ad1be2c89b69c2b068fc378daa952ba7f163c4a11628f55a4df523b3ef866040518082815260200191505060405180910390a3826007819055508160088190555033600960006101000a81548173ffffffffffffffffffffffffffffffffffffffff021916908373ffffffffffffffffffffffffffffffffffffffff160217905550620001b881620001c26401000000000262001367176401000000009004565b505050506200031c565b600360009054906101000a900473ffffffffffffffffffffffffffffffffffffffff1673ffffffffffffffffffffffffffffffffffffffff163373ffffffffffffffffffffffffffffffffffffffff161415156200021f57600080fd5b600073ffffffffffffffffffffffffffffffffffffffff168173ffffffffffffffffffffffffffffffffffffffff16141515156200025c57600080fd5b8073ffffffffffffffffffffffffffffffffffffffff16600360009054906101000a900473ffffffffffffffffffffffffffffffffffffffff1673ffffffffffffffffffffffffffffffffffffffff167f8be0079c531659141344cd1fd0a4f28419497f9722a3daafe3b4186f6b6457e060405160405180910390a380600360006101000a81548173ffffffffffffffffffffffffffffffffffffffff021916908373ffffffffffffffffffffffffffffffffffffffff16021790555050565b612266806200032c6000396000f300606060405260043610610154576000357c0100000000000000000000000000000000000000000000000000000000900463ffffffff168063095ea7b31461015957806318160ddd146101b35780631df93558146101dc57806323b872dd146102055780633f4ba83a1461027e5780634185fdc51461029357806342966c68146102ed578063483a20b2146103105780635b5416ca146103495780635c975abb146103725780635d5aa2771461039f57806366188463146103f457806370a082311461044e57806374eedd461461049b5780638456cb59146104c45780638da5cb5b146104d95780639c1e03a01461052e578063a3f4df7e14610583578063a9059cbb14610611578063b65c26111461066b578063bfabd7541461068e578063d0516650146106e8578063d73dd62314610735578063dd62ed3e1461078f578063f2fde38b146107fb578063f76f8d7814610834575b600080fd5b341561016457600080fd5b610199600480803573ffffffffffffffffffffffffffffffffffffffff169060200190919080359060200190919050506108c2565b604051808215151515815260200191505060405180910390f35b34156101be57600080fd5b6101c661094a565b6040518082815260200191505060405180910390f35b34156101e757600080fd5b6101ef610954565b6040518082815260200191505060405180910390f35b341561021057600080fd5b610264600480803573ffffffffffffffffffffffffffffffffffffffff1690602001909190803573ffffffffffffffffffffffffffffffffffffffff1690602001909190803590602001909190505061095a565b604051808215151515815260200191505060405180910390f35b341561028957600080fd5b6102916109e4565b005b341561029e57600080fd5b6102d3600480803573ffffffffffffffffffffffffffffffffffffffff16906020019091908035906020019091905050610ae0565b604051808215151515815260200191505060405180910390f35b34156102f857600080fd5b61030e6004808035906020019091905050610c44565b005b341561031b57600080fd5b610347600480803573ffffffffffffffffffffffffffffffffffffffff16906020019091905050610c51565b005b341561035457600080fd5b61035c610cf1565b6040518082815260200191505060405180910390f35b341561037d57600080fd5b610385610cf7565b604051808215151515815260200191505060405180910390f35b34156103aa57600080fd5b6103b2610d0a565b604051808273ffffffffffffffffffffffffffffffffffffffff1673ffffffffffffffffffffffffffffffffffffffff16815260200191505060405180910390f35b34156103ff57600080fd5b610434600480803573ffffffffffffffffffffffffffffffffffffffff16906020019091908035906020019091905050610d30565b604051808215151515815260200191505060405180910390f35b341561045957600080fd5b610485600480803573ffffffffffffffffffffffffffffffffffffffff16906020019091905050610db8565b6040518082815260200191505060405180910390f35b34156104a657600080fd5b6104ae610e00565b6040518082815260200191505060405180910390f35b34156104cf57600080fd5b6104d7610e06565b005b34156104e457600080fd5b6104ec610f5b565b604051808273ffffffffffffffffffffffffffffffffffffffff1673ffffffffffffffffffffffffffffffffffffffff16815260200191505060405180910390f35b341561053957600080fd5b610541610f81565b604051808273ffffffffffffffffffffffffffffffffffffffff1673ffffffffffffffffffffffffffffffffffffffff16815260200191505060405180910390f35b341561058e57600080fd5b610596610fa7565b6040518080602001828103825283818151815260200191508051906020019080838360005b838110156105d65780820151818401526020810190506105bb565b50505050905090810190601f1680156106035780820380516001836020036101000a031916815260200191505b509250505060405180910390f35b341561061c57600080fd5b610651600480803573ffffffffffffffffffffffffffffffffffffffff16906020019091908035906020019091905050610fe0565b604051808215151515815260200191505060405180910390f35b341561067657600080fd5b61068c6004808035906020019091905050611068565b005b341561069957600080fd5b6106ce600480803573ffffffffffffffffffffffffffffffffffffffff169060200190919080359060200190919050506110dc565b604051808215151515815260200191505060405180910390f35b34156106f357600080fd5b61071f600480803573ffffffffffffffffffffffffffffffffffffffff16906020019091905050611240565b6040518082815260200191505060405180910390f35b341561074057600080fd5b610775600480803573ffffffffffffffffffffffffffffffffffffffff16906020019091908035906020019091905050611258565b604051808215151515815260200191505060405180910390f35b341561079a57600080fd5b6107e5600480803573ffffffffffffffffffffffffffffffffffffffff1690602001909190803573ffffffffffffffffffffffffffffffffffffffff169060200190919050506112e0565b6040518082815260200191505060405180910390f35b341561080657600080fd5b610832600480803573ffffffffffffffffffffffffffffffffffffffff16906020019091905050611367565b005b341561083f57600080fd5b6108476114bf565b6040518080602001828103825283818151815260200191508051906020019080838360005b8381101561088757808201518184015260208101905061086c565b50505050905090810190601f1680156108b45780820380516001836020036101000a031916815260200191505b509250505060405180910390f35b6000600360149054906101000a900460ff16158061092d5750600460009054906101000a900473ffffffffffffffffffffffffffffffffffffffff1673ffffffffffffffffffffffffffffffffffffffff163373ffffffffffffffffffffffffffffffffffffffff16145b151561093857600080fd5b61094283836114f8565b905092915050565b6000600154905090565b60075481565b6000600360149054906101000a900460ff1615806109c55750600460009054906101000a900473ffffffffffffffffffffffffffffffffffffffff1673ffffffffffffffffffffffffffffffffffffffff163373ffffffffffffffffffffffffffffffffffffffff16145b15156109d057600080fd5b6109db8484846115ea565b90509392505050565b600360009054906101000a900473ffffffffffffffffffffffffffffffffffffffff1673ffffffffffffffffffffffffffffffffffffffff163373ffffffffffffffffffffffffffffffffffffffff16141515610a4057600080fd5b600360149054906101000a900460ff161515610a5b57600080fd5b600073ffffffffffffffffffffffffffffffffffffffff163373ffffffffffffffffffffffffffffffffffffffff1614151515610a9757600080fd5b6000600360146101000a81548160ff0219169083151502179055507f7805862f689e2f13df9f062ff482ad3ad112aca9e0847911ed832e158c525b3360405160405180910390a1565b6000600460009054906101000a900473ffffffffffffffffffffffffffffffffffffffff1673ffffffffffffffffffffffffffffffffffffffff163373ffffffffffffffffffffffffffffffffffffffff161480610b8b5750600360009054906101000a900473ffffffffffffffffffffffffffffffffffffffff1673ffffffffffffffffffffffffffffffffffffffff163373ffffffffffffffffffffffffffffffffffffffff16145b1515610b9657600080fd5b600082111515610ba557600080fd5b610bf782600560008673ffffffffffffffffffffffffffffffffffffffff1673ffffffffffffffffffffffffffffffffffffffff168152602001908152602001600020546119a490919063ffffffff16565b600560008573ffffffffffffffffffffffffffffffffffffffff1673ffffffffffffffffffffffffffffffffffffffff168152602001908152602001600020819055506001905092915050565b610c4e33826119bd565b50565b600360009054906101000a900473ffffffffffffffffffffffffffffffffffffffff1673ffffffffffffffffffffffffffffffffffffffff163373ffffffffffffffffffffffffffffffffffffffff16141515610cad57600080fd5b80600460006101000a81548173ffffffffffffffffffffffffffffffffffffffff021916908373ffffffffffffffffffffffffffffffffffffffff16021790555050565b60065481565b600360149054906101000a900460ff1681565b600960009054906101000a900473ffffffffffffffffffffffffffffffffffffffff1681565b6000600360149054906101000a900460ff161580610d9b5750600460009054906101000a900473ffffffffffffffffffffffffffffffffffffffff1673ffffffffffffffffffffffffffffffffffffffff163373ffffffffffffffffffffffffffffffffffffffff16145b1515610da657600080fd5b610db08383611b70565b905092915050565b60008060008373ffffffffffffffffffffffffffffffffffffffff1673ffffffffffffffffffffffffffffffffffffffff168152602001908152602001600020549050919050565b60085481565b600360009054906101000a900473ffffffffffffffffffffffffffffffffffffffff1673ffffffffffffffffffffffffffffffffffffffff163373ffffffffffffffffffffffffffffffffffffffff16141515610e6257600080fd5b600360149054906101000a900460ff161580610ecb5750600460009054906101000a900473ffffffffffffffffffffffffffffffffffffffff1673ffffffffffffffffffffffffffffffffffffffff163373ffffffffffffffffffffffffffffffffffffffff16145b1515610ed657600080fd5b600073ffffffffffffffffffffffffffffffffffffffff163373ffffffffffffffffffffffffffffffffffffffff1614151515610f1257600080fd5b6001600360146101000a81548160ff0219169083151502179055507f6985a02210a168e66602d3235cb6db0e70f92b3ba4d376a33c0f3d9434bff62560405160405180910390a1565b600360009054906101000a900473ffffffffffffffffffffffffffffffffffffffff1681565b600460009054906101000a900473ffffffffffffffffffffffffffffffffffffffff1681565b6040805190810160405280600981526020017f41676f6e546f6b656e000000000000000000000000000000000000000000000081525081565b6000600360149054906101000a900460ff16158061104b5750600460009054906101000a900473ffffffffffffffffffffffffffffffffffffffff1673ffffffffffffffffffffffffffffffffffffffff163373ffffffffffffffffffffffffffffffffffffffff16145b151561105657600080fd5b6110608383611e01565b905092915050565b600360009054906101000a900473ffffffffffffffffffffffffffffffffffffffff1673ffffffffffffffffffffffffffffffffffffffff163373ffffffffffffffffffffffffffffffffffffffff161415156110c457600080fd5b80421015156110d257600080fd5b8060068190555050565b6000600460009054906101000a900473ffffffffffffffffffffffffffffffffffffffff1673ffffffffffffffffffffffffffffffffffffffff163373ffffffffffffffffffffffffffffffffffffffff1614806111875750600360009054906101000a900473ffffffffffffffffffffffffffffffffffffffff1673ffffffffffffffffffffffffffffffffffffffff163373ffffffffffffffffffffffffffffffffffffffff16145b151561119257600080fd5b6000821115156111a157600080fd5b6111f382600560008673ffffffffffffffffffffffffffffffffffffffff1673ffffffffffffffffffffffffffffffffffffffff1681526020019081526020016000205461202090919063ffffffff16565b600560008573ffffffffffffffffffffffffffffffffffffffff1673ffffffffffffffffffffffffffffffffffffffff168152602001908152602001600020819055506001905092915050565b60056020528060005260406000206000915090505481565b6000600360149054906101000a900460ff1615806112c35750600460009054906101000a900473ffffffffffffffffffffffffffffffffffffffff1673ffffffffffffffffffffffffffffffffffffffff163373ffffffffffffffffffffffffffffffffffffffff16145b15156112ce57600080fd5b6112d8838361203e565b905092915050565b6000600260008473ffffffffffffffffffffffffffffffffffffffff1673ffffffffffffffffffffffffffffffffffffffff16815260200190815260200160002060008373ffffffffffffffffffffffffffffffffffffffff1673ffffffffffffffffffffffffffffffffffffffff16815260200190815260200160002054905092915050565b600360009054906101000a900473ffffffffffffffffffffffffffffffffffffffff1673ffffffffffffffffffffffffffffffffffffffff163373ffffffffffffffffffffffffffffffffffffffff161415156113c357600080fd5b600073ffffffffffffffffffffffffffffffffffffffff168173ffffffffffffffffffffffffffffffffffffffff16141515156113ff57600080fd5b8073ffffffffffffffffffffffffffffffffffffffff16600360009054906101000a900473ffffffffffffffffffffffffffffffffffffffff1673ffffffffffffffffffffffffffffffffffffffff167f8be0079c531659141344cd1fd0a4f28419497f9722a3daafe3b4186f6b6457e060405160405180910390a380600360006101000a81548173ffffffffffffffffffffffffffffffffffffffff021916908373ffffffffffffffffffffffffffffffffffffffff16021790555050565b6040805190810160405280600381526020017f41474e000000000000000000000000000000000000000000000000000000000081525081565b600081600260003373ffffffffffffffffffffffffffffffffffffffff1673ffffffffffffffffffffffffffffffffffffffff16815260200190815260200160002060008573ffffffffffffffffffffffffffffffffffffffff1673ffffffffffffffffffffffffffffffffffffffff168152602001908152602001600020819055508273ffffffffffffffffffffffffffffffffffffffff163373ffffffffffffffffffffffffffffffffffffffff167f8c5be1e5ebec7d5bd14f71427d1e84f3dd0314c0f7b2291e5b200ac8c7c3b925846040518082815260200191505060405180910390a36001905092915050565b60008073ffffffffffffffffffffffffffffffffffffffff168373ffffffffffffffffffffffffffffffffffffffff161415151561162757600080fd5b6000808573ffffffffffffffffffffffffffffffffffffffff1673ffffffffffffffffffffffffffffffffffffffff16815260200190815260200160002054821115151561167457600080fd5b600260008573ffffffffffffffffffffffffffffffffffffffff1673ffffffffffffffffffffffffffffffffffffffff16815260200190815260200160002060003373ffffffffffffffffffffffffffffffffffffffff1673ffffffffffffffffffffffffffffffffffffffff1681526020019081526020016000205482111515156116ff57600080fd5b611750826000808773ffffffffffffffffffffffffffffffffffffffff1673ffffffffffffffffffffffffffffffffffffffff168152602001908152602001600020546119a490919063ffffffff16565b6000808673ffffffffffffffffffffffffffffffffffffffff1673ffffffffffffffffffffffffffffffffffffffff168152602001908152602001600020819055506117e3826000808673ffffffffffffffffffffffffffffffffffffffff1673ffffffffffffffffffffffffffffffffffffffff1681526020019081526020016000205461202090919063ffffffff16565b6000808573ffffffffffffffffffffffffffffffffffffffff1673ffffffffffffffffffffffffffffffffffffffff168152602001908152602001600020819055506118b482600260008773ffffffffffffffffffffffffffffffffffffffff1673ffffffffffffffffffffffffffffffffffffffff16815260200190815260200160002060003373ffffffffffffffffffffffffffffffffffffffff1673ffffffffffffffffffffffffffffffffffffffff168152602001908152602001600020546119a490919063ffffffff16565b600260008673ffffffffffffffffffffffffffffffffffffffff1673ffffffffffffffffffffffffffffffffffffffff16815260200190815260200160002060003373ffffffffffffffffffffffffffffffffffffffff1673ffffffffffffffffffffffffffffffffffffffff168152602001908152602001600020819055508273ffffffffffffffffffffffffffffffffffffffff168473ffffffffffffffffffffffffffffffffffffffff167fddf252ad1be2c89b69c2b068fc378daa952ba7f163c4a11628f55a4df523b3ef846040518082815260200191505060405180910390a3600190509392505050565b60008282111515156119b257fe5b818303905092915050565b6000808373ffffffffffffffffffffffffffffffffffffffff1673ffffffffffffffffffffffffffffffffffffffff168152602001908152602001600020548111151515611a0a57600080fd5b611a5b816000808573ffffffffffffffffffffffffffffffffffffffff1673ffffffffffffffffffffffffffffffffffffffff168152602001908152602001600020546119a490919063ffffffff16565b6000808473ffffffffffffffffffffffffffffffffffffffff1673ffffffffffffffffffffffffffffffffffffffff16815260200190815260200160002081905550611ab2816001546119a490919063ffffffff16565b6001819055508173ffffffffffffffffffffffffffffffffffffffff167fcc16f5dbb4873280815c1ee09dbd06736cffcc184412cf7a71a0fdb75d397ca5826040518082815260200191505060405180910390a2600073ffffffffffffffffffffffffffffffffffffffff168273ffffffffffffffffffffffffffffffffffffffff167fddf252ad1be2c89b69c2b068fc378daa952ba7f163c4a11628f55a4df523b3ef836040518082815260200191505060405180910390a35050565b600080600260003373ffffffffffffffffffffffffffffffffffffffff1673ffffffffffffffffffffffffffffffffffffffff16815260200190815260200160002060008573ffffffffffffffffffffffffffffffffffffffff1673ffffffffffffffffffffffffffffffffffffffff16815260200190815260200160002054905080831115611c81576000600260003373ffffffffffffffffffffffffffffffffffffffff1673ffffffffffffffffffffffffffffffffffffffff16815260200190815260200160002060008673ffffffffffffffffffffffffffffffffffffffff1673ffffffffffffffffffffffffffffffffffffffff16815260200190815260200160002081905550611d15565b611c9483826119a490919063ffffffff16565b600260003373ffffffffffffffffffffffffffffffffffffffff1673ffffffffffffffffffffffffffffffffffffffff16815260200190815260200160002060008673ffffffffffffffffffffffffffffffffffffffff1673ffffffffffffffffffffffffffffffffffffffff168152602001908152602001600020819055505b8373ffffffffffffffffffffffffffffffffffffffff163373ffffffffffffffffffffffffffffffffffffffff167f8c5be1e5ebec7d5bd14f71427d1e84f3dd0314c0f7b2291e5b200ac8c7c3b925600260003373ffffffffffffffffffffffffffffffffffffffff1673ffffffffffffffffffffffffffffffffffffffff16815260200190815260200160002060008873ffffffffffffffffffffffffffffffffffffffff1673ffffffffffffffffffffffffffffffffffffffff168152602001908152602001600020546040518082815260200191505060405180910390a3600191505092915050565b60008073ffffffffffffffffffffffffffffffffffffffff168373ffffffffffffffffffffffffffffffffffffffff1614151515611e3e57600080fd5b6000803373ffffffffffffffffffffffffffffffffffffffff1673ffffffffffffffffffffffffffffffffffffffff168152602001908152602001600020548211151515611e8b57600080fd5b611edc826000803373ffffffffffffffffffffffffffffffffffffffff1673ffffffffffffffffffffffffffffffffffffffff168152602001908152602001600020546119a490919063ffffffff16565b6000803373ffffffffffffffffffffffffffffffffffffffff1673ffffffffffffffffffffffffffffffffffffffff16815260200190815260200160002081905550611f6f826000808673ffffffffffffffffffffffffffffffffffffffff1673ffffffffffffffffffffffffffffffffffffffff1681526020019081526020016000205461202090919063ffffffff16565b6000808573ffffffffffffffffffffffffffffffffffffffff1673ffffffffffffffffffffffffffffffffffffffff168152602001908152602001600020819055508273ffffffffffffffffffffffffffffffffffffffff163373ffffffffffffffffffffffffffffffffffffffff167fddf252ad1be2c89b69c2b068fc378daa952ba7f163c4a11628f55a4df523b3ef846040518082815260200191505060405180910390a36001905092915050565b600080828401905083811015151561203457fe5b8091505092915050565b60006120cf82600260003373ffffffffffffffffffffffffffffffffffffffff1673ffffffffffffffffffffffffffffffffffffffff16815260200190815260200160002060008673ffffffffffffffffffffffffffffffffffffffff1673ffffffffffffffffffffffffffffffffffffffff1681526020019081526020016000205461202090919063ffffffff16565b600260003373ffffffffffffffffffffffffffffffffffffffff1673ffffffffffffffffffffffffffffffffffffffff16815260200190815260200160002060008573ffffffffffffffffffffffffffffffffffffffff1673ffffffffffffffffffffffffffffffffffffffff168152602001908152602001600020819055508273ffffffffffffffffffffffffffffffffffffffff163373ffffffffffffffffffffffffffffffffffffffff167f8c5be1e5ebec7d5bd14f71427d1e84f3dd0314c0f7b2291e5b200ac8c7c3b925600260003373ffffffffffffffffffffffffffffffffffffffff1673ffffffffffffffffffffffffffffffffffffffff16815260200190815260200160002060008773ffffffffffffffffffffffffffffffffffffffff1673ffffffffffffffffffffffffffffffffffffffff168152602001908152602001600020546040518082815260200191505060405180910390a360019050929150505600a165627a7a7230582090b475892e03b62c14f66336dc40f2ecd8d1fa93ebc5dc998efc62bcd442b0b10029a165627a7a723058208fce4a00d450b9a5c386501fd16587a06250e0a094c88ec314bfe525a142e1b900296060604052341561000f57600080fd5b604051602080610a7783398101604052808051906020019091905050336000806101000a81548173ffffffffffffffffffffffffffffffffffffffff021916908373ffffffffffffffffffffffffffffffffffffffff160217905550600073ffffffffffffffffffffffffffffffffffffffff168173ffffffffffffffffffffffffffffffffffffffff16141515156100a757600080fd5b80600260006101000a81548173ffffffffffffffffffffffffffffffffffffffff021916908373ffffffffffffffffffffffffffffffffffffffff1602179055506000600260146101000a81548160ff0219169083600281111561010757fe5b02179055505061095b8061011c6000396000f300606060405260043610610099576000357c0100000000000000000000000000000000000000000000000000000000900463ffffffff16806343d726d61461009e578063521eb273146100b35780638c52dc41146101085780638da5cb5b1461011d578063c19d93fb14610172578063cb13cddb146101a9578063f2fde38b146101f6578063f340fa011461022f578063fa89401a1461025d575b600080fd5b34156100a957600080fd5b6100b1610296565b005b34156100be57600080fd5b6100c66103ef565b604051808273ffffffffffffffffffffffffffffffffffffffff1673ffffffffffffffffffffffffffffffffffffffff16815260200191505060405180910390f35b341561011357600080fd5b61011b610415565b005b341561012857600080fd5b6101306104f6565b604051808273ffffffffffffffffffffffffffffffffffffffff1673ffffffffffffffffffffffffffffffffffffffff16815260200191505060405180910390f35b341561017d57600080fd5b61018561051b565b6040518082600281111561019557fe5b60ff16815260200191505060405180910390f35b34156101b457600080fd5b6101e0600480803573ffffffffffffffffffffffffffffffffffffffff1690602001909190505061052e565b6040518082815260200191505060405180910390f35b341561020157600080fd5b61022d600480803573ffffffffffffffffffffffffffffffffffffffff16906020019091905050610546565b005b61025b600480803573ffffffffffffffffffffffffffffffffffffffff1690602001909190505061069b565b005b341561026857600080fd5b610294600480803573ffffffffffffffffffffffffffffffffffffffff169060200190919050506107c2565b005b6000809054906101000a900473ffffffffffffffffffffffffffffffffffffffff1673ffffffffffffffffffffffffffffffffffffffff163373ffffffffffffffffffffffffffffffffffffffff161415156102f157600080fd5b600060028111156102fe57fe5b600260149054906101000a900460ff16600281111561031957fe5b14151561032557600080fd5b60028060146101000a81548160ff0219169083600281111561034357fe5b02179055507f1cdde67b72a90f19919ac732a437ac2f7a10fc128d28c2a6e525d89ce5cd9d3a60405160405180910390a1600260009054906101000a900473ffffffffffffffffffffffffffffffffffffffff1673ffffffffffffffffffffffffffffffffffffffff166108fc3073ffffffffffffffffffffffffffffffffffffffff16319081150290604051600060405180830381858888f1935050505015156103ed57600080fd5b565b600260009054906101000a900473ffffffffffffffffffffffffffffffffffffffff1681565b6000809054906101000a900473ffffffffffffffffffffffffffffffffffffffff1673ffffffffffffffffffffffffffffffffffffffff163373ffffffffffffffffffffffffffffffffffffffff1614151561047057600080fd5b6000600281111561047d57fe5b600260149054906101000a900460ff16600281111561049857fe5b1415156104a457600080fd5b6001600260146101000a81548160ff021916908360028111156104c357fe5b02179055507f599d8e5a83cffb867d051598c4d70e805d59802d8081c1c7d6dffc5b6aca2b8960405160405180910390a1565b6000809054906101000a900473ffffffffffffffffffffffffffffffffffffffff1681565b600260149054906101000a900460ff1681565b60016020528060005260406000206000915090505481565b6000809054906101000a900473ffffffffffffffffffffffffffffffffffffffff1673ffffffffffffffffffffffffffffffffffffffff163373ffffffffffffffffffffffffffffffffffffffff161415156105a157600080fd5b600073ffffffffffffffffffffffffffffffffffffffff168173ffffffffffffffffffffffffffffffffffffffff16141515156105dd57600080fd5b8073ffffffffffffffffffffffffffffffffffffffff166000809054906101000a900473ffffffffffffffffffffffffffffffffffffffff1673ffffffffffffffffffffffffffffffffffffffff167f8be0079c531659141344cd1fd0a4f28419497f9722a3daafe3b4186f6b6457e060405160405180910390a3806000806101000a81548173ffffffffffffffffffffffffffffffffffffffff021916908373ffffffffffffffffffffffffffffffffffffffff16021790555050565b6000809054906101000a900473ffffffffffffffffffffffffffffffffffffffff1673ffffffffffffffffffffffffffffffffffffffff163373ffffffffffffffffffffffffffffffffffffffff161415156106f657600080fd5b6000600281111561070357fe5b600260149054906101000a900460ff16600281111561071e57fe5b14151561072a57600080fd5b61077c34600160008473ffffffffffffffffffffffffffffffffffffffff1673ffffffffffffffffffffffffffffffffffffffff1681526020019081526020016000205461091190919063ffffffff16565b600160008373ffffffffffffffffffffffffffffffffffffffff1673ffffffffffffffffffffffffffffffffffffffff1681526020019081526020016000208190555050565b6000600160028111156107d157fe5b600260149054906101000a900460ff1660028111156107ec57fe5b1415156107f857600080fd5b600160008373ffffffffffffffffffffffffffffffffffffffff1673ffffffffffffffffffffffffffffffffffffffff1681526020019081526020016000205490506000600160008473ffffffffffffffffffffffffffffffffffffffff1673ffffffffffffffffffffffffffffffffffffffff168152602001908152602001600020819055508173ffffffffffffffffffffffffffffffffffffffff166108fc829081150290604051600060405180830381858888f1935050505015156108bf57600080fd5b8173ffffffffffffffffffffffffffffffffffffffff167fd7dee2702d63ad89917b6a4da9981c90c4d24f8c2bdfd64c604ecae57d8d0651826040518082815260200191505060405180910390a25050565b600080828401905083811015151561092557fe5b80915050929150505600a165627a7a7230582028c4149c4231909c6c5db2aff7a1060fc97f37e2dc6809452ecaf1af2a5ebb94002960606040526000600360146101000a81548160ff02191690831515021790555034156200002b57600080fd5b604051608080620025928339810160405280805190602001909190805190602001909190805190602001909190805190602001909190505033600360006101000a81548173ffffffffffffffffffffffffffffffffffffffff021916908373ffffffffffffffffffffffffffffffffffffffff160217905550624f1a00420160068190555083600181905550836000803373ffffffffffffffffffffffffffffffffffffffff1673ffffffffffffffffffffffffffffffffffffffff168152602001908152602001600020819055503373ffffffffffffffffffffffffffffffffffffffff1660007fddf252ad1be2c89b69c2b068fc378daa952ba7f163c4a11628f55a4df523b3ef866040518082815260200191505060405180910390a3826007819055508160088190555033600960006101000a81548173ffffffffffffffffffffffffffffffffffffffff021916908373ffffffffffffffffffffffffffffffffffffffff160217905550620001b881620001c26401000000000262001367176401000000009004565b505050506200031c565b600360009054906101000a900473ffffffffffffffffffffffffffffffffffffffff1673ffffffffffffffffffffffffffffffffffffffff163373ffffffffffffffffffffffffffffffffffffffff161415156200021f57600080fd5b600073ffffffffffffffffffffffffffffffffffffffff168173ffffffffffffffffffffffffffffffffffffffff16141515156200025c57600080fd5b8073ffffffffffffffffffffffffffffffffffffffff16600360009054906101000a900473ffffffffffffffffffffffffffffffffffffffff1673ffffffffffffffffffffffffffffffffffffffff167f8be0079c531659141344cd1fd0a4f28419497f9722a3daafe3b4186f6b6457e060405160405180910390a380600360006101000a81548173ffffffffffffffffffffffffffffffffffffffff021916908373ffffffffffffffffffffffffffffffffffffffff16021790555050565b612266806200032c6000396000f300606060405260043610610154576000357c0100000000000000000000000000000000000000000000000000000000900463ffffffff168063095ea7b31461015957806318160ddd146101b35780631df93558146101dc57806323b872dd146102055780633f4ba83a1461027e5780634185fdc51461029357806342966c68146102ed578063483a20b2146103105780635b5416ca146103495780635c975abb146103725780635d5aa2771461039f57806366188463146103f457806370a082311461044e57806374eedd461461049b5780638456cb59146104c45780638da5cb5b146104d95780639c1e03a01461052e578063a3f4df7e14610583578063a9059cbb14610611578063b65c26111461066b578063bfabd7541461068e578063d0516650146106e8578063d73dd62314610735578063dd62ed3e1461078f578063f2fde38b146107fb578063f76f8d7814610834575b600080fd5b341561016457600080fd5b610199600480803573ffffffffffffffffffffffffffffffffffffffff169060200190919080359060200190919050506108c2565b604051808215151515815260200191505060405180910390f35b34156101be57600080fd5b6101c661094a565b6040518082815260200191505060405180910390f35b34156101e757600080fd5b6101ef610954565b6040518082815260200191505060405180910390f35b341561021057600080fd5b610264600480803573ffffffffffffffffffffffffffffffffffffffff1690602001909190803573ffffffffffffffffffffffffffffffffffffffff1690602001909190803590602001909190505061095a565b604051808215151515815260200191505060405180910390f35b341561028957600080fd5b6102916109e4565b005b341561029e57600080fd5b6102d3600480803573ffffffffffffffffffffffffffffffffffffffff16906020019091908035906020019091905050610ae0565b604051808215151515815260200191505060405180910390f35b34156102f857600080fd5b61030e6004808035906020019091905050610c44565b005b341561031b57600080fd5b610347600480803573ffffffffffffffffffffffffffffffffffffffff16906020019091905050610c51565b005b341561035457600080fd5b61035c610cf1565b6040518082815260200191505060405180910390f35b341561037d57600080fd5b610385610cf7565b604051808215151515815260200191505060405180910390f35b34156103aa57600080fd5b6103b2610d0a565b604051808273ffffffffffffffffffffffffffffffffffffffff1673ffffffffffffffffffffffffffffffffffffffff16815260200191505060405180910390f35b34156103ff57600080fd5b610434600480803573ffffffffffffffffffffffffffffffffffffffff16906020019091908035906020019091905050610d30565b604051808215151515815260200191505060405180910390f35b341561045957600080fd5b610485600480803573ffffffffffffffffffffffffffffffffffffffff16906020019091905050610db8565b6040518082815260200191505060405180910390f35b34156104a657600080fd5b6104ae610e00565b6040518082815260200191505060405180910390f35b34156104cf57600080fd5b6104d7610e06565b005b34156104e457600080fd5b6104ec610f5b565b604051808273ffffffffffffffffffffffffffffffffffffffff1673ffffffffffffffffffffffffffffffffffffffff16815260200191505060405180910390f35b341561053957600080fd5b610541610f81565b604051808273ffffffffffffffffffffffffffffffffffffffff1673ffffffffffffffffffffffffffffffffffffffff16815260200191505060405180910390f35b341561058e57600080fd5b610596610fa7565b6040518080602001828103825283818151815260200191508051906020019080838360005b838110156105d65780820151818401526020810190506105bb565b50505050905090810190601f1680156106035780820380516001836020036101000a031916815260200191505b509250505060405180910390f35b341561061c57600080fd5b610651600480803573ffffffffffffffffffffffffffffffffffffffff16906020019091908035906020019091905050610fe0565b604051808215151515815260200191505060405180910390f35b341561067657600080fd5b61068c6004808035906020019091905050611068565b005b341561069957600080fd5b6106ce600480803573ffffffffffffffffffffffffffffffffffffffff169060200190919080359060200190919050506110dc565b604051808215151515815260200191505060405180910390f35b34156106f357600080fd5b61071f600480803573ffffffffffffffffffffffffffffffffffffffff16906020019091905050611240565b6040518082815260200191505060405180910390f35b341561074057600080fd5b610775600480803573ffffffffffffffffffffffffffffffffffffffff16906020019091908035906020019091905050611258565b604051808215151515815260200191505060405180910390f35b341561079a57600080fd5b6107e5600480803573ffffffffffffffffffffffffffffffffffffffff1690602001909190803573ffffffffffffffffffffffffffffffffffffffff169060200190919050506112e0565b6040518082815260200191505060405180910390f35b341561080657600080fd5b610832600480803573ffffffffffffffffffffffffffffffffffffffff16906020019091905050611367565b005b341561083f57600080fd5b6108476114bf565b6040518080602001828103825283818151815260200191508051906020019080838360005b8381101561088757808201518184015260208101905061086c565b50505050905090810190601f1680156108b45780820380516001836020036101000a031916815260200191505b509250505060405180910390f35b6000600360149054906101000a900460ff16158061092d5750600460009054906101000a900473ffffffffffffffffffffffffffffffffffffffff1673ffffffffffffffffffffffffffffffffffffffff163373ffffffffffffffffffffffffffffffffffffffff16145b151561093857600080fd5b61094283836114f8565b905092915050565b6000600154905090565b60075481565b6000600360149054906101000a900460ff1615806109c55750600460009054906101000a900473ffffffffffffffffffffffffffffffffffffffff1673ffffffffffffffffffffffffffffffffffffffff163373ffffffffffffffffffffffffffffffffffffffff16145b15156109d057600080fd5b6109db8484846115ea565b90509392505050565b600360009054906101000a900473ffffffffffffffffffffffffffffffffffffffff1673ffffffffffffffffffffffffffffffffffffffff163373ffffffffffffffffffffffffffffffffffffffff16141515610a4057600080fd5b600360149054906101000a900460ff161515610a5b57600080fd5b600073ffffffffffffffffffffffffffffffffffffffff163373ffffffffffffffffffffffffffffffffffffffff1614151515610a9757600080fd5b6000600360146101000a81548160ff0219169083151502179055507f7805862f689e2f13df9f062ff482ad3ad112aca9e0847911ed832e158c525b3360405160405180910390a1565b6000600460009054906101000a900473ffffffffffffffffffffffffffffffffffffffff1673ffffffffffffffffffffffffffffffffffffffff163373ffffffffffffffffffffffffffffffffffffffff161480610b8b5750600360009054906101000a900473ffffffffffffffffffffffffffffffffffffffff1673ffffffffffffffffffffffffffffffffffffffff163373ffffffffffffffffffffffffffffffffffffffff16145b1515610b9657600080fd5b600082111515610ba557600080fd5b610bf782600560008673ffffffffffffffffffffffffffffffffffffffff1673ffffffffffffffffffffffffffffffffffffffff168152602001908152602001600020546119a490919063ffffffff16565b600560008573ffffffffffffffffffffffffffffffffffffffff1673ffffffffffffffffffffffffffffffffffffffff168152602001908152602001600020819055506001905092915050565b610c4e33826119bd565b50565b600360009054906101000a900473ffffffffffffffffffffffffffffffffffffffff1673ffffffffffffffffffffffffffffffffffffffff163373ffffffffffffffffffffffffffffffffffffffff16141515610cad57600080fd5b80600460006101000a81548173ffffffffffffffffffffffffffffffffffffffff021916908373ffffffffffffffffffffffffffffffffffffffff16021790555050565b60065481565b600360149054906101000a900460ff1681565b600960009054906101000a900473ffffffffffffffffffffffffffffffffffffffff1681565b6000600360149054906101000a900460ff161580610d9b5750600460009054906101000a900473ffffffffffffffffffffffffffffffffffffffff1673ffffffffffffffffffffffffffffffffffffffff163373ffffffffffffffffffffffffffffffffffffffff16145b1515610da657600080fd5b610db08383611b70565b905092915050565b60008060008373ffffffffffffffffffffffffffffffffffffffff1673ffffffffffffffffffffffffffffffffffffffff168152602001908152602001600020549050919050565b60085481565b600360009054906101000a900473ffffffffffffffffffffffffffffffffffffffff1673ffffffffffffffffffffffffffffffffffffffff163373ffffffffffffffffffffffffffffffffffffffff16141515610e6257600080fd5b600360149054906101000a900460ff161580610ecb5750600460009054906101000a900473ffffffffffffffffffffffffffffffffffffffff1673ffffffffffffffffffffffffffffffffffffffff163373ffffffffffffffffffffffffffffffffffffffff16145b1515610ed657600080fd5b600073ffffffffffffffffffffffffffffffffffffffff163373ffffffffffffffffffffffffffffffffffffffff1614151515610f1257600080fd5b6001600360146101000a81548160ff0219169083151502179055507f6985a02210a168e66602d3235cb6db0e70f92b3ba4d376a33c0f3d9434bff62560405160405180910390a1565b600360009054906101000a900473ffffffffffffffffffffffffffffffffffffffff1681565b600460009054906101000a900473ffffffffffffffffffffffffffffffffffffffff1681565b6040805190810160405280600981526020017f41676f6e546f6b656e000000000000000000000000000000000000000000000081525081565b6000600360149054906101000a900460ff16158061104b5750600460009054906101000a900473ffffffffffffffffffffffffffffffffffffffff1673ffffffffffffffffffffffffffffffffffffffff163373ffffffffffffffffffffffffffffffffffffffff16145b151561105657600080fd5b6110608383611e01565b905092915050565b600360009054906101000a900473ffffffffffffffffffffffffffffffffffffffff1673ffffffffffffffffffffffffffffffffffffffff163373ffffffffffffffffffffffffffffffffffffffff161415156110c457600080fd5b80421015156110d257600080fd5b8060068190555050565b6000600460009054906101000a900473ffffffffffffffffffffffffffffffffffffffff1673ffffffffffffffffffffffffffffffffffffffff163373ffffffffffffffffffffffffffffffffffffffff1614806111875750600360009054906101000a900473ffffffffffffffffffffffffffffffffffffffff1673ffffffffffffffffffffffffffffffffffffffff163373ffffffffffffffffffffffffffffffffffffffff16145b151561119257600080fd5b6000821115156111a157600080fd5b6111f382600560008673ffffffffffffffffffffffffffffffffffffffff1673ffffffffffffffffffffffffffffffffffffffff1681526020019081526020016000205461202090919063ffffffff16565b600560008573ffffffffffffffffffffffffffffffffffffffff1673ffffffffffffffffffffffffffffffffffffffff168152602001908152602001600020819055506001905092915050565b60056020528060005260406000206000915090505481565b6000600360149054906101000a900460ff1615806112c35750600460009054906101000a900473ffffffffffffffffffffffffffffffffffffffff1673ffffffffffffffffffffffffffffffffffffffff163373ffffffffffffffffffffffffffffffffffffffff16145b15156112ce57600080fd5b6112d8838361203e565b905092915050565b6000600260008473ffffffffffffffffffffffffffffffffffffffff1673ffffffffffffffffffffffffffffffffffffffff16815260200190815260200160002060008373ffffffffffffffffffffffffffffffffffffffff1673ffffffffffffffffffffffffffffffffffffffff16815260200190815260200160002054905092915050565b600360009054906101000a900473ffffffffffffffffffffffffffffffffffffffff1673ffffffffffffffffffffffffffffffffffffffff163373ffffffffffffffffffffffffffffffffffffffff161415156113c357600080fd5b600073ffffffffffffffffffffffffffffffffffffffff168173ffffffffffffffffffffffffffffffffffffffff16141515156113ff57600080fd5b8073ffffffffffffffffffffffffffffffffffffffff16600360009054906101000a900473ffffffffffffffffffffffffffffffffffffffff1673ffffffffffffffffffffffffffffffffffffffff167f8be0079c531659141344cd1fd0a4f28419497f9722a3daafe3b4186f6b6457e060405160405180910390a380600360006101000a81548173ffffffffffffffffffffffffffffffffffffffff021916908373ffffffffffffffffffffffffffffffffffffffff16021790555050565b6040805190810160405280600381526020017f41474e000000000000000000000000000000000000000000000000000000000081525081565b600081600260003373ffffffffffffffffffffffffffffffffffffffff1673ffffffffffffffffffffffffffffffffffffffff16815260200190815260200160002060008573ffffffffffffffffffffffffffffffffffffffff1673ffffffffffffffffffffffffffffffffffffffff168152602001908152602001600020819055508273ffffffffffffffffffffffffffffffffffffffff163373ffffffffffffffffffffffffffffffffffffffff167f8c5be1e5ebec7d5bd14f71427d1e84f3dd0314c0f7b2291e5b200ac8c7c3b925846040518082815260200191505060405180910390a36001905092915050565b60008073ffffffffffffffffffffffffffffffffffffffff168373ffffffffffffffffffffffffffffffffffffffff161415151561162757600080fd5b6000808573ffffffffffffffffffffffffffffffffffffffff1673ffffffffffffffffffffffffffffffffffffffff16815260200190815260200160002054821115151561167457600080fd5b600260008573ffffffffffffffffffffffffffffffffffffffff1673ffffffffffffffffffffffffffffffffffffffff16815260200190815260200160002060003373ffffffffffffffffffffffffffffffffffffffff1673ffffffffffffffffffffffffffffffffffffffff1681526020019081526020016000205482111515156116ff57600080fd5b611750826000808773ffffffffffffffffffffffffffffffffffffffff1673ffffffffffffffffffffffffffffffffffffffff168152602001908152602001600020546119a490919063ffffffff16565b6000808673ffffffffffffffffffffffffffffffffffffffff1673ffffffffffffffffffffffffffffffffffffffff168152602001908152602001600020819055506117e3826000808673ffffffffffffffffffffffffffffffffffffffff1673ffffffffffffffffffffffffffffffffffffffff1681526020019081526020016000205461202090919063ffffffff16565b6000808573ffffffffffffffffffffffffffffffffffffffff1673ffffffffffffffffffffffffffffffffffffffff168152602001908152602001600020819055506118b482600260008773ffffffffffffffffffffffffffffffffffffffff1673ffffffffffffffffffffffffffffffffffffffff16815260200190815260200160002060003373ffffffffffffffffffffffffffffffffffffffff1673ffffffffffffffffffffffffffffffffffffffff168152602001908152602001600020546119a490919063ffffffff16565b600260008673ffffffffffffffffffffffffffffffffffffffff1673ffffffffffffffffffffffffffffffffffffffff16815260200190815260200160002060003373ffffffffffffffffffffffffffffffffffffffff1673ffffffffffffffffffffffffffffffffffffffff168152602001908152602001600020819055508273ffffffffffffffffffffffffffffffffffffffff168473ffffffffffffffffffffffffffffffffffffffff167fddf252ad1be2c89b69c2b068fc378daa952ba7f163c4a11628f55a4df523b3ef846040518082815260200191505060405180910390a3600190509392505050565b60008282111515156119b257fe5b818303905092915050565b6000808373ffffffffffffffffffffffffffffffffffffffff1673ffffffffffffffffffffffffffffffffffffffff168152602001908152602001600020548111151515611a0a57600080fd5b611a5b816000808573ffffffffffffffffffffffffffffffffffffffff1673ffffffffffffffffffffffffffffffffffffffff168152602001908152602001600020546119a490919063ffffffff16565b6000808473ffffffffffffffffffffffffffffffffffffffff1673ffffffffffffffffffffffffffffffffffffffff16815260200190815260200160002081905550611ab2816001546119a490919063ffffffff16565b6001819055508173ffffffffffffffffffffffffffffffffffffffff167fcc16f5dbb4873280815c1ee09dbd06736cffcc184412cf7a71a0fdb75d397ca5826040518082815260200191505060405180910390a2600073ffffffffffffffffffffffffffffffffffffffff168273ffffffffffffffffffffffffffffffffffffffff167fddf252ad1be2c89b69c2b068fc378daa952ba7f163c4a11628f55a4df523b3ef836040518082815260200191505060405180910390a35050565b600080600260003373ffffffffffffffffffffffffffffffffffffffff1673ffffffffffffffffffffffffffffffffffffffff16815260200190815260200160002060008573ffffffffffffffffffffffffffffffffffffffff1673ffffffffffffffffffffffffffffffffffffffff16815260200190815260200160002054905080831115611c81576000600260003373ffffffffffffffffffffffffffffffffffffffff1673ffffffffffffffffffffffffffffffffffffffff16815260200190815260200160002060008673ffffffffffffffffffffffffffffffffffffffff1673ffffffffffffffffffffffffffffffffffffffff16815260200190815260200160002081905550611d15565b611c9483826119a490919063ffffffff16565b600260003373ffffffffffffffffffffffffffffffffffffffff1673ffffffffffffffffffffffffffffffffffffffff16815260200190815260200160002060008673ffffffffffffffffffffffffffffffffffffffff1673ffffffffffffffffffffffffffffffffffffffff168152602001908152602001600020819055505b8373ffffffffffffffffffffffffffffffffffffffff163373ffffffffffffffffffffffffffffffffffffffff167f8c5be1e5ebec7d5bd14f71427d1e84f3dd0314c0f7b2291e5b200ac8c7c3b925600260003373ffffffffffffffffffffffffffffffffffffffff1673ffffffffffffffffffffffffffffffffffffffff16815260200190815260200160002060008873ffffffffffffffffffffffffffffffffffffffff1673ffffffffffffffffffffffffffffffffffffffff168152602001908152602001600020546040518082815260200191505060405180910390a3600191505092915050565b60008073ffffffffffffffffffffffffffffffffffffffff168373ffffffffffffffffffffffffffffffffffffffff1614151515611e3e57600080fd5b6000803373ffffffffffffffffffffffffffffffffffffffff1673ffffffffffffffffffffffffffffffffffffffff168152602001908152602001600020548211151515611e8b57600080fd5b611edc826000803373ffffffffffffffffffffffffffffffffffffffff1673ffffffffffffffffffffffffffffffffffffffff168152602001908152602001600020546119a490919063ffffffff16565b6000803373ffffffffffffffffffffffffffffffffffffffff1673ffffffffffffffffffffffffffffffffffffffff16815260200190815260200160002081905550611f6f826000808673ffffffffffffffffffffffffffffffffffffffff1673ffffffffffffffffffffffffffffffffffffffff1681526020019081526020016000205461202090919063ffffffff16565b6000808573ffffffffffffffffffffffffffffffffffffffff1673ffffffffffffffffffffffffffffffffffffffff168152602001908152602001600020819055508273ffffffffffffffffffffffffffffffffffffffff163373ffffffffffffffffffffffffffffffffffffffff167fddf252ad1be2c89b69c2b068fc378daa952ba7f163c4a11628f55a4df523b3ef846040518082815260200191505060405180910390a36001905092915050565b600080828401905083811015151561203457fe5b8091505092915050565b60006120cf82600260003373ffffffffffffffffffffffffffffffffffffffff1673ffffffffffffffffffffffffffffffffffffffff16815260200190815260200160002060008673ffffffffffffffffffffffffffffffffffffffff1673ffffffffffffffffffffffffffffffffffffffff1681526020019081526020016000205461202090919063ffffffff16565b600260003373ffffffffffffffffffffffffffffffffffffffff1673ffffffffffffffffffffffffffffffffffffffff16815260200190815260200160002060008573ffffffffffffffffffffffffffffffffffffffff1673ffffffffffffffffffffffffffffffffffffffff168152602001908152602001600020819055508273ffffffffffffffffffffffffffffffffffffffff163373ffffffffffffffffffffffffffffffffffffffff167f8c5be1e5ebec7d5bd14f71427d1e84f3dd0314c0f7b2291e5b200ac8c7c3b925600260003373ffffffffffffffffffffffffffffffffffffffff1673ffffffffffffffffffffffffffffffffffffffff16815260200190815260200160002060008773ffffffffffffffffffffffffffffffffffffffff1673ffffffffffffffffffffffffffffffffffffffff168152602001908152602001600020546040518082815260200191505060405180910390a360019050929150505600a165627a7a7230582090b475892e03b62c14f66336dc40f2ecd8d1fa93ebc5dc998efc62bcd442b0b10029",
  "source": "pragma solidity ^0.4.18;\r\n\r\nimport \"./AgonToken.sol\";\r\nimport \"./crowdsale/CappedCrowdsale.sol\";\r\nimport \"./crowdsale/IndividuallyFixedCappedCrowdsale.sol\";\r\nimport \"./crowdsale/RefundableCrowdsale.sol\";\r\nimport \"./crowdsale/StandardTokenCrowdsale.sol\";\r\nimport \"./ownership/Ownable.sol\";\r\n\r\n/**\r\n * @title IndividuallyFixedCappedCrowdsale\r\n * @dev Crowdsale with a fixed per-user caps. IndividuallyFixedCappedCrowdsale is developed based on\r\n * OpenZeppelin's IndividuallyCappedCrowdsale and Request Network's RequestTokenSale\r\n */\r\ncontract AgonTokenCrowdSale is Ownable, StandardTokenCrowdsale, RefundableCrowdsale, IndividuallyFixedCappedCrowdsale, CappedCrowdsale {\r\n\r\n    using SafeMath for uint256;\r\n\r\n    // Initial Agon Token supply\r\n    uint public constant DECIMALS = 18;\r\n    uint256 public constant INITIAL_AGON_TOKEN_SUPPLY = 240000000*(10**DECIMALS); // 240 million x 18 decimals to represent in wei\r\n\r\n    // Agon team wallet and initial token amount distributed to founder team (17.5%, to be vested)\r\n    address public constant AGON_TEAM_VESTING_WALLET = 0x123;\r\n    uint256 public constant AGON_TEAM_VESTING_AMOUNT = 42000000e18;\r\n\r\n    // Agon reserve early investor wallet and initial token amount for sale for early investors (10%)\r\n    address public constant AGON_EARLY_INVESTOR_WALLET = 0x456;\r\n    uint256 public constant AGON_EARLY_INVESTOR_AMOUNT = 24000000e18;\r\n\r\n    // Agon reserve token for airdrop later (4%)\r\n    address public constant AGON_AIRDROP_WALLET = 0x789;\r\n    uint256 public constant AGON_AIRDROP_AMOUNT = 9600000e18;\r\n\r\n    // Agon bounty wallet and initial token amount distributed to bounty hunters! (5%)\r\n    address public constant AGON_BOUNTY_WALLET = 0x789;\r\n    uint256 public constant AGON_BOUNTY_AMOUNT = 12000000e18;\r\n\r\n    // Agon beneficiary MultiSig wallet to collect fund, same as team vesting wallet\r\n    address public constant AGON_BENEFICIARY_WALLET = AGON_TEAM_VESTING_WALLET;\r\n\r\n    // Soft cap of the token sale in ether. If token sale fails to hit soft cap, contributed ether will be refunded.\r\n    uint256 private constant SOFT_CAP_IN_WEI = 1000 ether;\r\n\r\n    // Hard cap of the token sale in ether\r\n    uint256 private constant HARD_CAP_IN_WEI = 7000 ether;\r\n\r\n    // Fixed cap wei limit for individual contribution\r\n    uint256 public constant AGON_INDIVIDUAL_CAP = 6000000e18;\r\n\r\n    // Start timestamp of each phase in token sale. Phase 0 is pre-sale. Public sale starts at Phase 1.\r\n    uint256 public phase0StartTime;\r\n\r\n    uint256 public phase1StartTime;\r\n\r\n    uint256 public phase2StartTime;\r\n\r\n    uint256 public phase3StartTime;\r\n\r\n    // Token sale rate from ETH to AGN\r\n    uint256 private constant RATE_ETH_AGN = 20000;\r\n\r\n    // Rate of bonus token from ETH to AGN\r\n    // Phase 0 - Presale - 40% bonus\r\n    uint256 public constant RATE_ETH_AGN_PHASE_0_BONUS = 8000;\r\n\r\n    // Phase 1 - 25% bonus\r\n    uint256 public constant RATE_ETH_AGN_PHASE_1_BONUS = 5000;\r\n\r\n    // Phase 2 - 15% bonus\r\n    uint256 public constant RATE_ETH_AGN_PHASE_2_BONUS = 3000;\r\n\r\n    // Phase 3 - 0% bonus\r\n    uint256 public constant RATE_ETH_AGN_PHASE_3_BONUS = 0;\r\n\r\n    function AgonTokenCrowdSale(uint256 _startTime, uint256 _endTime)\r\n        CappedCrowdsale(HARD_CAP_IN_WEI)\r\n        IndividuallyFixedCappedCrowdsale(AGON_INDIVIDUAL_CAP)\r\n        RefundableCrowdsale(SOFT_CAP_IN_WEI)\r\n        StandardTokenCrowdsale(_startTime, _endTime, RATE_ETH_AGN, AGON_BENEFICIARY_WALLET) public\r\n    {\r\n        // Set phase start time\r\n        // Pre-sale date (Day 1, only 1 day)\r\n        phase0StartTime = _startTime;\r\n\r\n        // Phase 1 (Day 2 to Day 4 inclusive. Total of 3 days)\r\n        phase1StartTime = phase0StartTime + 1 days;\r\n\r\n        // Phase 2 (Day 5 to Day 19 inclusive. Total of 15 days)\r\n        phase2StartTime = phase1StartTime + 3 days;\r\n\r\n        // Phase 3 (Day 20 to Day 35 inclusive, which is the end date. Total of 16 days)\r\n        phase3StartTime = phase2StartTime + 15 weeks;\r\n\r\n        require(_endTime > phase3StartTime);\r\n\r\n        // Tokens distributed to founder team will be transfer after crowd sale\r\n        // token.transfer(AGON_TEAM_VESTING_WALLET, AGON_TEAM_VESTING_AMOUNT);\r\n\r\n        token.transfer(AGON_EARLY_INVESTOR_WALLET, AGON_EARLY_INVESTOR_AMOUNT);\r\n\r\n        token.transfer(AGON_BOUNTY_WALLET, AGON_BOUNTY_AMOUNT);\r\n\r\n        token.transfer(AGON_AIRDROP_WALLET, AGON_AIRDROP_AMOUNT);\r\n    }\r\n\r\n    /**\r\n     * @dev Create Agon token contract (override createTokenContract of StandardTokenCrowdsale)\r\n     * @return the StandardToken created\r\n     */\r\n    function createTokenContract() internal returns(StandardToken) {\r\n        return new AgonToken(INITIAL_AGON_TOKEN_SUPPLY, startTime, endTime, AGON_TEAM_VESTING_WALLET);\r\n    }\r\n\r\n    /**\r\n     * @dev Get current bonus rate\r\n     * @return the bonus rate in AGN per ETH unit\r\n     */\r\n    function GetCurrentBonusRate() public constant returns(uint256 bonusRate) {\r\n        // solium-disable-next-line security/no-block-members\r\n        if (now >= phase0StartTime && now <= phase1StartTime) {\r\n            bonusRate = RATE_ETH_AGN_PHASE_0_BONUS;\r\n\r\n            // solium-disable-next-line security/no-block-members\r\n        } else if (now >= phase1StartTime && now <= phase2StartTime) {\r\n            bonusRate = RATE_ETH_AGN_PHASE_1_BONUS;\r\n\r\n            // solium-disable-next-line security/no-block-members\r\n        } else if (now >= phase2StartTime && now <= phase3StartTime) {\r\n            bonusRate = RATE_ETH_AGN_PHASE_2_BONUS;\r\n\r\n            // solium-disable-next-line security/no-block-members\r\n        } else if (now >= phase3StartTime && now <= endTime) {\r\n            bonusRate = RATE_ETH_AGN_PHASE_3_BONUS;\r\n        }\r\n    }\r\n\r\n    /**\r\n     * @dev Get current bonus rate. Override the base function from StandardTokenCrowdsale\r\n     * @param _weiAmount Value in wei to be converted into bonus tokens\r\n     * @return Number of bonus tokens that will be awarded for a purchase of _weiAmount\r\n     */\r\n    function _getBonusTokenAmount(uint256 _weiAmount) internal view returns (uint256)\r\n    {\r\n        uint256 bonusRate = GetCurrentBonusRate();\r\n        uint256 bonusTokens = _weiAmount.mul(bonusRate);\r\n\r\n        return bonusTokens;\r\n    }\r\n\r\n    /**\r\n     * @dev Burn all the unsold tokens\r\n     */\r\n    function burnRemainingTokens() public onlyOwner {\r\n        require(hasEnded());\r\n        uint256 tokensToBurn = token.balanceOf(this);\r\n        token.burn(tokensToBurn);\r\n\r\n        // Also, a portion of tokens in founder team wallet must be burn to maintain the allocation ratio of 17.5%\r\n        uint256 tokensInCirculation = INITIAL_AGON_TOKEN_SUPPLY.sub(tokensToBurn);\r\n        uint256 newFounderTokens = tokensInCirculation.mul(175).div(1000);\r\n\r\n        if (AGON_TEAM_VESTING_AMOUNT > newFounderTokens) {\r\n            uint256 founderTokensToBurn = AGON_TEAM_VESTING_AMOUNT.sub(newFounderTokens);\r\n            token.burn(founderTokensToBurn);\r\n            token.transfer(AGON_TEAM_VESTING_WALLET, newFounderTokens);\r\n        }\r\n    }\r\n}",
  "sourcePath": "c:\\AgonNetwork\\agon-ico\\contracts\\AgonTokenCrowdSale.sol",
  "compiler": {
    "name": "solc",
    "version": "0.4.21+commit.dfe3193c.Emscripten.clang"
  },
  "schemaVersion": "2.0.0",
  "updatedAt": "2018-04-19T08:05:29.261Z"
}