{
  "contractName": "BurnableToken",
  "abi": [
    {
      "constant": true,
      "inputs": [],
      "name": "totalSupply",
      "outputs": [
        {
          "name": "",
          "type": "uint256"
        }
      ],
      "payable": false,
      "stateMutability": "view",
      "type": "function"
    },
    {
      "constant": true,
      "inputs": [
        {
          "name": "_owner",
          "type": "address"
        }
      ],
      "name": "balanceOf",
      "outputs": [
        {
          "name": "balance",
          "type": "uint256"
        }
      ],
      "payable": false,
      "stateMutability": "view",
      "type": "function"
    },
    {
      "constant": false,
      "inputs": [
        {
          "name": "_to",
          "type": "address"
        },
        {
          "name": "_value",
          "type": "uint256"
        }
      ],
      "name": "transfer",
      "outputs": [
        {
          "name": "",
          "type": "bool"
        }
      ],
      "payable": false,
      "stateMutability": "nonpayable",
      "type": "function"
    },
    {
      "anonymous": false,
      "inputs": [
        {
          "indexed": true,
          "name": "burner",
          "type": "address"
        },
        {
          "indexed": false,
          "name": "value",
          "type": "uint256"
        }
      ],
      "name": "Burn",
      "type": "event"
    },
    {
      "anonymous": false,
      "inputs": [
        {
          "indexed": true,
          "name": "from",
          "type": "address"
        },
        {
          "indexed": true,
          "name": "to",
          "type": "address"
        },
        {
          "indexed": false,
          "name": "value",
          "type": "uint256"
        }
      ],
      "name": "Transfer",
      "type": "event"
    },
    {
      "constant": false,
      "inputs": [
        {
          "name": "_value",
          "type": "uint256"
        }
      ],
      "name": "burn",
      "outputs": [],
      "payable": false,
      "stateMutability": "nonpayable",
      "type": "function"
    }
  ],
  "bytecode": "0x6060604052341561000f57600080fd5b6105ee8061001e6000396000f300606060405260043610610062576000357c0100000000000000000000000000000000000000000000000000000000900463ffffffff16806318160ddd1461006757806342966c681461009057806370a08231146100b3578063a9059cbb14610100575b600080fd5b341561007257600080fd5b61007a61015a565b6040518082815260200191505060405180910390f35b341561009b57600080fd5b6100b16004808035906020019091905050610164565b005b34156100be57600080fd5b6100ea600480803573ffffffffffffffffffffffffffffffffffffffff16906020019091905050610171565b6040518082815260200191505060405180910390f35b341561010b57600080fd5b610140600480803573ffffffffffffffffffffffffffffffffffffffff169060200190919080359060200190919050506101b9565b604051808215151515815260200191505060405180910390f35b6000600154905090565b61016e33826103d8565b50565b60008060008373ffffffffffffffffffffffffffffffffffffffff1673ffffffffffffffffffffffffffffffffffffffff168152602001908152602001600020549050919050565b60008073ffffffffffffffffffffffffffffffffffffffff168373ffffffffffffffffffffffffffffffffffffffff16141515156101f657600080fd5b6000803373ffffffffffffffffffffffffffffffffffffffff1673ffffffffffffffffffffffffffffffffffffffff16815260200190815260200160002054821115151561024357600080fd5b610294826000803373ffffffffffffffffffffffffffffffffffffffff1673ffffffffffffffffffffffffffffffffffffffff1681526020019081526020016000205461058b90919063ffffffff16565b6000803373ffffffffffffffffffffffffffffffffffffffff1673ffffffffffffffffffffffffffffffffffffffff16815260200190815260200160002081905550610327826000808673ffffffffffffffffffffffffffffffffffffffff1673ffffffffffffffffffffffffffffffffffffffff168152602001908152602001600020546105a490919063ffffffff16565b6000808573ffffffffffffffffffffffffffffffffffffffff1673ffffffffffffffffffffffffffffffffffffffff168152602001908152602001600020819055508273ffffffffffffffffffffffffffffffffffffffff163373ffffffffffffffffffffffffffffffffffffffff167fddf252ad1be2c89b69c2b068fc378daa952ba7f163c4a11628f55a4df523b3ef846040518082815260200191505060405180910390a36001905092915050565b6000808373ffffffffffffffffffffffffffffffffffffffff1673ffffffffffffffffffffffffffffffffffffffff16815260200190815260200160002054811115151561042557600080fd5b610476816000808573ffffffffffffffffffffffffffffffffffffffff1673ffffffffffffffffffffffffffffffffffffffff1681526020019081526020016000205461058b90919063ffffffff16565b6000808473ffffffffffffffffffffffffffffffffffffffff1673ffffffffffffffffffffffffffffffffffffffff168152602001908152602001600020819055506104cd8160015461058b90919063ffffffff16565b6001819055508173ffffffffffffffffffffffffffffffffffffffff167fcc16f5dbb4873280815c1ee09dbd06736cffcc184412cf7a71a0fdb75d397ca5826040518082815260200191505060405180910390a2600073ffffffffffffffffffffffffffffffffffffffff168273ffffffffffffffffffffffffffffffffffffffff167fddf252ad1be2c89b69c2b068fc378daa952ba7f163c4a11628f55a4df523b3ef836040518082815260200191505060405180910390a35050565b600082821115151561059957fe5b818303905092915050565b60008082840190508381101515156105b857fe5b80915050929150505600a165627a7a72305820a20bc0a0b5928a504d722144d7140ba6fdae8cc9e2c4a0146fe8eef07ecbb62d0029",
  "source": "pragma solidity ^0.4.21;\r\n\r\nimport \"./BasicToken.sol\";\r\n\r\n\r\n/**\r\n * @title Burnable Token\r\n * @dev Token that can be irreversibly burned (destroyed).\r\n */\r\ncontract BurnableToken is BasicToken {\r\n\r\n    event Burn(address indexed burner, uint256 value);\r\n\r\n    /**\r\n     * @dev Burns a specific amount of tokens.\r\n     * @param _value The amount of token to be burned.\r\n     */\r\n    function burn(uint256 _value) public {\r\n        _burn(msg.sender, _value);\r\n    }\r\n\r\n    function _burn(address _who, uint256 _value) internal {\r\n        require(_value <= balances[_who]);\r\n        // no need to require value <= totalSupply, since that would imply the\r\n        // sender's balance is greater than the totalSupply, which *should* be an assertion failure\r\n\r\n        balances[_who] = balances[_who].sub(_value);\r\n        totalSupply_ = totalSupply_.sub(_value);\r\n        emit Burn(_who, _value);\r\n        emit Transfer(_who, address(0), _value);\r\n    }\r\n}",
  "sourcePath": "c:\\AgonNetwork\\agon-ico\\contracts\\token\\BurnableToken.sol",
  "compiler": {
    "name": "solc",
    "version": "0.4.21+commit.dfe3193c.Emscripten.clang"
  },
  "schemaVersion": "2.0.0",
  "updatedAt": "2018-04-19T08:05:29.263Z"
}