{
  "contractName": "TokenVesting",
  "abi": [
    {
      "constant": true,
      "inputs": [],
      "name": "duration",
      "outputs": [
        {
          "name": "",
          "type": "uint256"
        }
      ],
      "payable": false,
      "stateMutability": "view",
      "type": "function"
    },
    {
      "constant": true,
      "inputs": [],
      "name": "cliff",
      "outputs": [
        {
          "name": "",
          "type": "uint256"
        }
      ],
      "payable": false,
      "stateMutability": "view",
      "type": "function"
    },
    {
      "constant": true,
      "inputs": [],
      "name": "beneficiary",
      "outputs": [
        {
          "name": "",
          "type": "address"
        }
      ],
      "payable": false,
      "stateMutability": "view",
      "type": "function"
    },
    {
      "constant": true,
      "inputs": [],
      "name": "revocable",
      "outputs": [
        {
          "name": "",
          "type": "bool"
        }
      ],
      "payable": false,
      "stateMutability": "view",
      "type": "function"
    },
    {
      "constant": true,
      "inputs": [],
      "name": "owner",
      "outputs": [
        {
          "name": "",
          "type": "address"
        }
      ],
      "payable": false,
      "stateMutability": "view",
      "type": "function"
    },
    {
      "constant": true,
      "inputs": [
        {
          "name": "",
          "type": "address"
        }
      ],
      "name": "released",
      "outputs": [
        {
          "name": "",
          "type": "uint256"
        }
      ],
      "payable": false,
      "stateMutability": "view",
      "type": "function"
    },
    {
      "constant": true,
      "inputs": [],
      "name": "start",
      "outputs": [
        {
          "name": "",
          "type": "uint256"
        }
      ],
      "payable": false,
      "stateMutability": "view",
      "type": "function"
    },
    {
      "constant": false,
      "inputs": [
        {
          "name": "newOwner",
          "type": "address"
        }
      ],
      "name": "transferOwnership",
      "outputs": [],
      "payable": false,
      "stateMutability": "nonpayable",
      "type": "function"
    },
    {
      "constant": true,
      "inputs": [
        {
          "name": "",
          "type": "address"
        }
      ],
      "name": "revoked",
      "outputs": [
        {
          "name": "",
          "type": "bool"
        }
      ],
      "payable": false,
      "stateMutability": "view",
      "type": "function"
    },
    {
      "inputs": [
        {
          "name": "_beneficiary",
          "type": "address"
        },
        {
          "name": "_start",
          "type": "uint256"
        },
        {
          "name": "_cliff",
          "type": "uint256"
        },
        {
          "name": "_duration",
          "type": "uint256"
        },
        {
          "name": "_revocable",
          "type": "bool"
        }
      ],
      "payable": false,
      "stateMutability": "nonpayable",
      "type": "constructor"
    },
    {
      "anonymous": false,
      "inputs": [
        {
          "indexed": false,
          "name": "amount",
          "type": "uint256"
        }
      ],
      "name": "Released",
      "type": "event"
    },
    {
      "anonymous": false,
      "inputs": [],
      "name": "Revoked",
      "type": "event"
    },
    {
      "anonymous": false,
      "inputs": [
        {
          "indexed": true,
          "name": "previousOwner",
          "type": "address"
        },
        {
          "indexed": true,
          "name": "newOwner",
          "type": "address"
        }
      ],
      "name": "OwnershipTransferred",
      "type": "event"
    },
    {
      "constant": false,
      "inputs": [
        {
          "name": "token",
          "type": "address"
        }
      ],
      "name": "release",
      "outputs": [],
      "payable": false,
      "stateMutability": "nonpayable",
      "type": "function"
    },
    {
      "constant": false,
      "inputs": [
        {
          "name": "token",
          "type": "address"
        }
      ],
      "name": "revoke",
      "outputs": [],
      "payable": false,
      "stateMutability": "nonpayable",
      "type": "function"
    },
    {
      "constant": true,
      "inputs": [
        {
          "name": "token",
          "type": "address"
        }
      ],
      "name": "releasableAmount",
      "outputs": [
        {
          "name": "",
          "type": "uint256"
        }
      ],
      "payable": false,
      "stateMutability": "view",
      "type": "function"
    },
    {
      "constant": true,
      "inputs": [
        {
          "name": "token",
          "type": "address"
        }
      ],
      "name": "vestedAmount",
      "outputs": [
        {
          "name": "",
          "type": "uint256"
        }
      ],
      "payable": false,
      "stateMutability": "view",
      "type": "function"
    }
  ],
  "bytecode": "0x6060604052341561000f57600080fd5b60405160a080610f3a83398101604052808051906020019091908051906020019091908051906020019091908051906020019091908051906020019091905050336000806101000a81548173ffffffffffffffffffffffffffffffffffffffff021916908373ffffffffffffffffffffffffffffffffffffffff160217905550600073ffffffffffffffffffffffffffffffffffffffff168573ffffffffffffffffffffffffffffffffffffffff16141515156100cb57600080fd5b8183111515156100da57600080fd5b84600160006101000a81548173ffffffffffffffffffffffffffffffffffffffff021916908373ffffffffffffffffffffffffffffffffffffffff16021790555080600560006101000a81548160ff0219169083151502179055508160048190555061015c838561017364010000000002610c27179091906401000000009004565b600281905550836003819055505050505050610191565b600080828401905083811015151561018757fe5b8091505092915050565b610d9a806101a06000396000f3006060604052600436106100c5576000357c0100000000000000000000000000000000000000000000000000000000900463ffffffff1680630fb5a6b4146100ca57806313d033c0146100f35780631726cbc81461011c5780631916558714610169578063384711cc146101a257806338af3eed146101ef57806374a8f10314610244578063872a78101461027d5780638da5cb5b146102aa5780639852595c146102ff578063be9a65551461034c578063f2fde38b14610375578063fa01dc06146103ae575b600080fd5b34156100d557600080fd5b6100dd6103ff565b6040518082815260200191505060405180910390f35b34156100fe57600080fd5b610106610405565b6040518082815260200191505060405180910390f35b341561012757600080fd5b610153600480803573ffffffffffffffffffffffffffffffffffffffff1690602001909190505061040b565b6040518082815260200191505060405180910390f35b341561017457600080fd5b6101a0600480803573ffffffffffffffffffffffffffffffffffffffff1690602001909190505061046e565b005b34156101ad57600080fd5b6101d9600480803573ffffffffffffffffffffffffffffffffffffffff169060200190919050506105a7565b6040518082815260200191505060405180910390f35b34156101fa57600080fd5b610202610793565b604051808273ffffffffffffffffffffffffffffffffffffffff1673ffffffffffffffffffffffffffffffffffffffff16815260200191505060405180910390f35b341561024f57600080fd5b61027b600480803573ffffffffffffffffffffffffffffffffffffffff169060200190919050506107b9565b005b341561028857600080fd5b610290610a43565b604051808215151515815260200191505060405180910390f35b34156102b557600080fd5b6102bd610a56565b604051808273ffffffffffffffffffffffffffffffffffffffff1673ffffffffffffffffffffffffffffffffffffffff16815260200191505060405180910390f35b341561030a57600080fd5b610336600480803573ffffffffffffffffffffffffffffffffffffffff16906020019091905050610a7b565b6040518082815260200191505060405180910390f35b341561035757600080fd5b61035f610a93565b6040518082815260200191505060405180910390f35b341561038057600080fd5b6103ac600480803573ffffffffffffffffffffffffffffffffffffffff16906020019091905050610a99565b005b34156103b957600080fd5b6103e5600480803573ffffffffffffffffffffffffffffffffffffffff16906020019091905050610bee565b604051808215151515815260200191505060405180910390f35b60045481565b60025481565b6000610467600660008473ffffffffffffffffffffffffffffffffffffffff1673ffffffffffffffffffffffffffffffffffffffff16815260200190815260200160002054610459846105a7565b610c0e90919063ffffffff16565b9050919050565b60006104798261040b565b905060008111151561048a57600080fd5b6104dc81600660008573ffffffffffffffffffffffffffffffffffffffff1673ffffffffffffffffffffffffffffffffffffffff16815260200190815260200160002054610c2790919063ffffffff16565b600660008473ffffffffffffffffffffffffffffffffffffffff1673ffffffffffffffffffffffffffffffffffffffff1681526020019081526020016000208190555061056c600160009054906101000a900473ffffffffffffffffffffffffffffffffffffffff16828473ffffffffffffffffffffffffffffffffffffffff16610c459092919063ffffffff16565b7ffb81f9b30d73d830c3544b34d827c08142579ee75710b490bab0b3995468c565816040518082815260200191505060405180910390a15050565b60008060008373ffffffffffffffffffffffffffffffffffffffff166370a08231306000604051602001526040518263ffffffff167c0100000000000000000000000000000000000000000000000000000000028152600401808273ffffffffffffffffffffffffffffffffffffffff1673ffffffffffffffffffffffffffffffffffffffff168152602001915050602060405180830381600087803b151561064f57600080fd5b6102c65a03f1151561066057600080fd5b5050506040518051905091506106be600660008673ffffffffffffffffffffffffffffffffffffffff1673ffffffffffffffffffffffffffffffffffffffff1681526020019081526020016000205483610c2790919063ffffffff16565b90506002544210156106d3576000925061078c565b6106ea600454600354610c2790919063ffffffff16565b421015806107415750600760008573ffffffffffffffffffffffffffffffffffffffff1673ffffffffffffffffffffffffffffffffffffffff16815260200190815260200160002060009054906101000a900460ff165b1561074e5780925061078c565b61078960045461077b61076c60035442610c0e90919063ffffffff16565b84610d1890919063ffffffff16565b610d5390919063ffffffff16565b92505b5050919050565b600160009054906101000a900473ffffffffffffffffffffffffffffffffffffffff1681565b60008060008060009054906101000a900473ffffffffffffffffffffffffffffffffffffffff1673ffffffffffffffffffffffffffffffffffffffff163373ffffffffffffffffffffffffffffffffffffffff1614151561081957600080fd5b600560009054906101000a900460ff16151561083457600080fd5b600760008573ffffffffffffffffffffffffffffffffffffffff1673ffffffffffffffffffffffffffffffffffffffff16815260200190815260200160002060009054906101000a900460ff1615151561088d57600080fd5b8373ffffffffffffffffffffffffffffffffffffffff166370a08231306000604051602001526040518263ffffffff167c0100000000000000000000000000000000000000000000000000000000028152600401808273ffffffffffffffffffffffffffffffffffffffff1673ffffffffffffffffffffffffffffffffffffffff168152602001915050602060405180830381600087803b151561093057600080fd5b6102c65a03f1151561094157600080fd5b5050506040518051905092506109568461040b565b915061096b8284610c0e90919063ffffffff16565b90506001600760008673ffffffffffffffffffffffffffffffffffffffff1673ffffffffffffffffffffffffffffffffffffffff16815260200190815260200160002060006101000a81548160ff021916908315150217905550610a116000809054906101000a900473ffffffffffffffffffffffffffffffffffffffff16828673ffffffffffffffffffffffffffffffffffffffff16610c459092919063ffffffff16565b7f44825a4b2df8acb19ce4e1afba9aa850c8b65cdb7942e2078f27d0b0960efee660405160405180910390a150505050565b600560009054906101000a900460ff1681565b6000809054906101000a900473ffffffffffffffffffffffffffffffffffffffff1681565b60066020528060005260406000206000915090505481565b60035481565b6000809054906101000a900473ffffffffffffffffffffffffffffffffffffffff1673ffffffffffffffffffffffffffffffffffffffff163373ffffffffffffffffffffffffffffffffffffffff16141515610af457600080fd5b600073ffffffffffffffffffffffffffffffffffffffff168173ffffffffffffffffffffffffffffffffffffffff1614151515610b3057600080fd5b8073ffffffffffffffffffffffffffffffffffffffff166000809054906101000a900473ffffffffffffffffffffffffffffffffffffffff1673ffffffffffffffffffffffffffffffffffffffff167f8be0079c531659141344cd1fd0a4f28419497f9722a3daafe3b4186f6b6457e060405160405180910390a3806000806101000a81548173ffffffffffffffffffffffffffffffffffffffff021916908373ffffffffffffffffffffffffffffffffffffffff16021790555050565b60076020528060005260406000206000915054906101000a900460ff1681565b6000828211151515610c1c57fe5b818303905092915050565b6000808284019050838110151515610c3b57fe5b8091505092915050565b8273ffffffffffffffffffffffffffffffffffffffff1663a9059cbb83836000604051602001526040518363ffffffff167c0100000000000000000000000000000000000000000000000000000000028152600401808373ffffffffffffffffffffffffffffffffffffffff1673ffffffffffffffffffffffffffffffffffffffff16815260200182815260200192505050602060405180830381600087803b1515610cf057600080fd5b6102c65a03f11515610d0157600080fd5b505050604051805190501515610d1357fe5b505050565b6000806000841415610d2d5760009150610d4c565b8284029050828482811515610d3e57fe5b04141515610d4857fe5b8091505b5092915050565b6000808284811515610d6157fe5b04905080915050929150505600a165627a7a72305820a54abd2dc2229b154d67d9b3e806e1ff85a5086f59080a9979b83050c566da730029",
  "source": "pragma solidity ^0.4.18;\r\n\r\nimport \"./ERC20Basic.sol\";\r\nimport \"./SafeERC20.sol\";\r\nimport \"../ownership/Ownable.sol\";\r\nimport \"../math/SafeMath.sol\";\r\n\r\n\r\n/**\r\n * @title TokenVesting\r\n * @dev A token holder contract that can release its token balance gradually like a\r\n * typical vesting scheme, with a cliff and vesting period. Optionally revocable by the\r\n * owner.\r\n */\r\ncontract TokenVesting is Ownable {\r\n    using SafeMath for uint256;\r\n    using SafeERC20 for ERC20Basic;\r\n\r\n    event Released(uint256 amount);\r\n    event Revoked();\r\n\r\n    // beneficiary of tokens after they are released\r\n    address public beneficiary;\r\n\r\n    uint256 public cliff;\r\n    uint256 public start;\r\n    uint256 public duration;\r\n\r\n    bool public revocable;\r\n\r\n    mapping (address => uint256) public released;\r\n    mapping (address => bool) public revoked;\r\n\r\n    /**\r\n    * @dev Creates a vesting contract that vests its balance of any ERC20 token to the\r\n    * _beneficiary, gradually in a linear fashion until _start + _duration. By then all\r\n    * of the balance will have vested.\r\n    * @param _beneficiary address of the beneficiary to whom vested tokens are transferred\r\n    * @param _cliff duration in seconds of the cliff in which tokens will begin to vest\r\n    * @param _duration duration in seconds of the period in which the tokens will vest\r\n    * @param _revocable whether the vesting is revocable or not\r\n    */\r\n    function TokenVesting(address _beneficiary, uint256 _start, uint256 _cliff, uint256 _duration, bool _revocable) public {\r\n        require(_beneficiary != address(0));\r\n        require(_cliff <= _duration);\r\n\r\n        beneficiary = _beneficiary;\r\n        revocable = _revocable;\r\n        duration = _duration;\r\n        cliff = _start.add(_cliff);\r\n        start = _start;\r\n    }\r\n\r\n    /**\r\n    * @notice Transfers vested tokens to beneficiary.\r\n    * @param token ERC20 token which is being vested\r\n    */\r\n    function release(ERC20Basic token) public {\r\n        uint256 unreleased = releasableAmount(token);\r\n\r\n        require(unreleased > 0);\r\n\r\n        released[token] = released[token].add(unreleased);\r\n\r\n        token.safeTransfer(beneficiary, unreleased);\r\n\r\n        Released(unreleased);\r\n    }\r\n\r\n    /**\r\n    * @notice Allows the owner to revoke the vesting. Tokens already vested\r\n    * remain in the contract, the rest are returned to the owner.\r\n    * @param token ERC20 token which is being vested\r\n    */\r\n    function revoke(ERC20Basic token) public onlyOwner {\r\n        require(revocable);\r\n        require(!revoked[token]);\r\n\r\n        uint256 balance = token.balanceOf(this);\r\n\r\n        uint256 unreleased = releasableAmount(token);\r\n        uint256 refund = balance.sub(unreleased);\r\n\r\n        revoked[token] = true;\r\n\r\n        token.safeTransfer(owner, refund);\r\n\r\n        Revoked();\r\n    }\r\n\r\n    /**\r\n    * @dev Calculates the amount that has already vested but hasn't been released yet.\r\n    * @param token ERC20 token which is being vested\r\n    */\r\n    function releasableAmount(ERC20Basic token) public view returns (uint256) {\r\n        return vestedAmount(token).sub(released[token]);\r\n    }\r\n\r\n    /**\r\n    * @dev Calculates the amount that has already vested.\r\n    * @param token ERC20 token which is being vested\r\n    */\r\n    function vestedAmount(ERC20Basic token) public view returns (uint256) {\r\n        uint256 currentBalance = token.balanceOf(this);\r\n        uint256 totalBalance = currentBalance.add(released[token]);\r\n\r\n        if (now < cliff) {\r\n        return 0;\r\n        } else if (now >= start.add(duration) || revoked[token]) {\r\n        return totalBalance;\r\n        } else {\r\n        return totalBalance.mul(now.sub(start)).div(duration);\r\n        }\r\n    }\r\n}",
  "sourcePath": "C:\\crypt\\repo\\agon-ico\\contracts\\token\\TokenVesting.sol",
  "compiler": {
    "name": "solc",
    "version": "0.4.19+commit.c4cbbb05.Emscripten.clang"
  },
  "schemaVersion": "2.0.0",
  "updatedAt": "2018-04-05T08:56:54.596Z"
}